:020000040800F2
:10000000FCFF00209516000049150000491500006E
:100010004915000049150000491500004915000068
:100020004915000049150000491500004915000058
:100030004915000049150000491500004915000048
:100040004915000049150000491500004915000038
:100050004915000049150000491500004915000028
:100060004915000049150000491500004915000018
:100070004915000049150000491500004915000008
:1000800049150000491500004915000049150000F8
:1000900049150000491500004915000049150000E8
:1000A00049150000491500004915000049150000D8
:1000B00049150000491500004915000049150000C8
:1000C00049150000491500004915000049150000B8
:1000D00049150000491500004915000049150000A8
:1000E0004915000049150000491500004915000098
:1000F0004915000049150000491500004915000088
:100100004915000049150000491500004915000077
:100110004915000049150000491500004915000067
:100120004915000049150000491500004915000057
:100130004915000049150000491500004915000047
:100140004915000049150000491500004915000037
:1001500081B0194900EA0101084600220EE004209E
:1001600022E0082020E010201EE020201CE040209B
:100170001AE0802018E040F2001015E00F49884294
:10018000EDD00F498842ECD00E498842EBD00E49A1
:100190008842EAD00D498842E9D00D498842E8D02A
:1001A0000C498842E7D010460B49096841EA000231
:1001B00009490A6001B0704700FCFFFF00080140D8
:1001C000000C0140001001400014014000180140E3
:1001D000001C0140002001401810024081B0ADF821
:1001E00000100146BDF800000B68C3F3C01202B94D
:1001F000FAE70A1D106001B07047FFFF83B0CDF829
:1002000000E000F0FF031A09104603F00F02134646
:1002100014E0194A02921FE0184A02921CE0184AA0
:10022000029219E0174A029216E0174A029213E06E
:10023000164A029210E0164A02920DE00028E8D019
:100240000128E9D00228EAD00328EBD00428ECD01A
:100250000528EDD00628EED0012212B29A40ADF862
:10026000042002980A46BDF8041000F019F9DDF8E0
:1002700000E003B0704700BF00080140000C0140DF
:10028000001001400014014000180140001C014012
:100290000020014081B000F20C02116000F208025F
:1002A0001368C3F3000202B9F8E700F20C02126807
:1002B00090B201B07047FFFF01490860704700BF6E
:1002C0008C01224201490860704700BF940121421D
:1002D00001490860704700BF9C81214201490860C4
:1002E000704700BFB481224201490860704700BFD7
:1002F000AC01224201490860704700BFA8012242B8
:1003000001490860704700BFB88122420149086076
:10031000704700BF9881214201490860704700BFC3
:10032000A881224201490860704700BF8001214234
:1003300001490860704700BFB001224201490860CE
:10034000704700BFA481224201490860704700BF86
:10035000A081224201490860704700BFA8012242E3
:1003600001490860704700BFAC01224281B0CDF85E
:1003700000E081B20348FFF731FFDDF800E001B093
:10038000704700BF0038014081B0CDF800E081B275
:100390000348FFF77FFFDDF800E001B0704700BFC2
:1003A000003C004081B0CDF800E081B20348FFF787
:1003B00071FFDDF800E001B0704700BF0038004079
:1003C00081B0CDF800E081B20348FFF707FFDDF808
:1003D00000E001B0704700BF0044004081B0CDF89C
:1003E00000E081B20348FFF7F9FEDDF800E001B05C
:1003F000704700BF0050004081B0CDF800E081B2EE
:100400000348FFF7EBFEDDF800E001B0704700BFE6
:10041000004C004081B0CDF800E081B20348FFF706
:10042000DDFEDDF800E001B0704700BF004800408D
:1004300081B0CDF800E081B20348FFF72BFFDDF873
:1004400000E001B0704700BF003001400149086082
:10045000704700BFB081224201490860704700BF69
:10046000B081224201490860704700BFB0012242BA
:1004700001490860704700BF988122420149086025
:10048000704700BF9C81214201490860704700BF4E
:100490009881214201490860704700BF948122423F
:1004A00081B0CDF800E08CB21546774B00EA03032B
:1004B0001E461846FFF74CFEB4F1FF0F0CD1734BEC
:1004C0009D4203D14FF033333360D9E0422D03D145
:1004D0004FF044333360D3E04FF6FF739C4214D1A6
:1004E0006A4B9D4207D14FF033333360341D4FF0D8
:1004F00033332360C4E0422D07D14FF044333360DF
:10050000341D4FF044332360BAE00021002005F091
:1005100001030BB100211DE005F0020333B105F426
:10052000C0730BB1082100E0042113E005F00403BF
:1005300033B105F020030BB1042100E0002109E0F4
:1005400005F0080333B105F020030BB10C2100E0E6
:100550000821FFE74E4B05EA03030BB1032009E036
:1005600005F400730BB1022004E005F480630BB1C5
:100570000120FFE705F00C030BB10143FFE704F096
:10058000FF039BB2002B3BD0376800201FFA84F892
:1005900032462E4608282CD24FF0010303FA00F40D
:1005A00008EA0403A34222D185004FF00F03AB40B9
:1005B000DB4307EA030401FA05F344EA03031D469B
:1005C00006F48173B3F5817F05D102F214044FF074
:1005D00001038340236006F08203822B05D102F2DF
:1005E00010044FF00103834023602F46FFE7401CB7
:1005F000D0E717601FFA88F00F463146164602E032
:100600000F462946A0B2B0F1FF0F39D9331DD3F8F8
:1006100000800022082A30D202F208044FF00103C1
:1006200003FA04F400EA0403A34224D195004FF036
:100630000F03AB40DB4308EA030807FA05F348EA77
:10064000030801F48173B3F5817F07D106F2140525
:1006500002F208044FF00103A3402B6001F0820373
:10066000822B07D106F2100502F208044FF00103B5
:10067000A3402B60FFE7521CCCE7331DC3F800807A
:10068000DDF800E001B0704700FCFFFF1400080037
:100690000008080081B0CDF800E0012252B23E49C6
:1006A0000A6000F268010B686FF0006103EA010262
:1006B000144603F00061C90E0B4602F00041B1F18F
:1006C000004F02D135490A6801E035490A6804F44F
:1006D0007021090C0E464FF6FF7104EA01010D4628
:1006E00004F44011B1F5401F0DD16FF0706102EAC2
:1006F00001010E462A490A686FF070610A402849D4
:100700000A60324616E004F48011B1F5801F09D169
:100710004FF00301B140C94302EA010141F07061A9
:100720000A4607E0610D090105FA01F1C9430A40D3
:1007300042F070622BB1610D090105FA01F10A4323
:10074000FFE704F00041B1F1004F02D113490A6004
:1007500001E013490A6040F2000A81464FEA8A012B
:1007600009EB01010968B1F1FF3F10D009F1340133
:100770004FEA8A03C91809680A4609EB03010968A8
:1007800008461146FFF73AFD0AF1010AE6E7DDF8EF
:1007900000E001B0704700BF000342421C0001406E
:1007A0000400014081B000230360CB009BB242EA09
:1007B000030304689BB244EA03030360051D13149A
:1007C0001C462B6864F382032B6000F21C05002496
:1007D0002B6864F3CB232B600124036864F3861336
:1007E000036001B07047FFFF01490860704700BF18
:1007F0008801224201490860704700BF90012142F0
:1008000081B0CDF800E001200A4C2468A04740F2F6
:100810000B07C0F2000700BF00BF7F1EFDD100BF65
:1008200000BF00BF0020034C2468A047DDF800E0B3
:1008300001B070475001002083B0CDF800E08DF882
:10084000040002910B4C0C4B1C600C4C0C4B1C60BC
:10085000012464B20B4B1C601046FFF71BFF029A89
:100860009DF804100848FFF79DFFDDF800E003B095
:10087000704700BFFFFFFFFF5C01002089030000FD
:1008800060010020BC034242003C0040FFFFFFFF2C
:1008900081B0CDF800E00020104C2468A04740F261
:1008A0000B07C0F2000700BF00BF7F1EFDD100BFD5
:1008B00000BF00BF0120094C2468A04742F6DF6753
:1008C000C0F2000700BF00BF7F1EFDD100BF00BF08
:1008D00000BFDDF800E001B0704700BF5401002008
:1008E00081B0CDF800E001200A4C2468A04740F216
:1008F0000B07C0F2000700BF00BF7F1EFDD100BF85
:1009000000BF00BF0020034C2468A047DDF800E0D2
:1009100001B070474801002083B0CDF800E08AB2F2
:10092000014690B283B2421E90B26BB10A78D4B243
:10093000ADF804000291A0B2054C2468A0470299CA
:10094000BDF80400491CEDE7DDF800E003B0704796
:100950004C01002081B0CDF800E0044A89B2FFF7D5
:100960009FFDDDF800E001B0704700BF14000800F3
:1009700081B0CDF800E000200A4C2468A04740F286
:100980000B07C0F2000700BF00BF7F1EFDD100BFF4
:1009900000BF00BF0120034C2468A047DDF800E041
:1009A00001B070472800002081B0CDF800E04FF082
:1009B000420289B2FFF774FDDDF800E001B0704734
:1009C00081B0CDF800E0A9E0012905D140F2100185
:1009D0006548FFF7E9FF04E040F210016248FFF7C5
:1009E000B9FFBBE0012905D140F204015F48FFF7E0
:1009F000DBFF04E040F204015C48FFF7ABFFADE031
:100A0000012905D142F200015948FFF7CDFF04E06A
:100A100042F200015648FFF79DFF9FE0012905D1F2
:100A200040F200415148FFF7BFFF04E040F20041AF
:100A30004E48FFF78FFF91E0012905D140F60001F4
:100A40004A48FFF7B1FF04E040F600014748FFF7CE
:100A500081FF83E0012905D141F200014348FFF7FE
:100A6000A3FF04E041F200014048FFF773FF75E087
:100A7000012905D140F201013B48FFF795FF04E051
:100A800040F201013848FFF765FF67E0012905D111
:100A900040F200413648FFF787FF04E040F2004192
:100AA0003348FFF757FF59E0012905D140F20021F3
:100AB0002F48FFF779FF04E040F200212C48FFF7B0
:100AC00049FF4BE0012905D140F200112848FFF70A
:100AD0006BFF04E040F200112548FFF73BFF3DE0CB
:100AE000012905D140F240012248FFF75DFF04E0F3
:100AF00040F240011F48FFF72DFF2FE0012905D1EB
:100B000040F280011B48FFF74FFF04E040F28001F4
:100B10001848FFF71FFF21E0012020E000283FF4E4
:100B200053AF01283FF45EAF02283FF469AF0328BA
:100B30003FF474AF04283FF47FAF05283FF48AAF39
:100B400006283FF495AF0728A0D00828ACD0092884
:100B5000B8D00A28C4D00B28D0D0DDE70020DDF8BB
:100B600000E001B0704700BF0008014000100140E4
:100B700000140140000C014081B0CDF800E0011DDF
:100B80000A680168C8B21146034AFFF755FE002003
:100B9000DDF800E001B07047B41E000081B0CDF870
:100BA00000E0A9E0012905D140F220016548FFF7E6
:100BB000FBFE04E040F220016248FFF7CBFEBBE001
:100BC000012905D140F208015F48FFF7EDFE04E07E
:100BD00040F208015C48FFF7BDFEADE0012905D1F8
:100BE00044F200015948FFF7DFFE04E044F200013F
:100BF0005648FFF7AFFE9FE0012905D140F20041C2
:100C00005148FFF7D1FE04E040F200414E48FFF7A3
:100C1000A1FE91E0012905D140F600014A48FFF705
:100C2000C3FE04E040F600014748FFF793FE83E06F
:100C3000012905D141F200014348FFF7B5FE04E068
:100C400041F200014048FFF785FE75E0012905D11A
:100C500041F200013D48FFF7A7FE04E041F2000128
:100C60003A48FFF777FE67E0012905D140F6000119
:100C70003648FFF799FE04E040F600013348FFF7DD
:100C800069FE59E0012905D140F240012F48FFF7E4
:100C90008BFE04E040F240012C48FFF75BFE4BE086
:100CA000012905D140F220012848FFF77DFE04E02C
:100CB00040F220012548FFF74DFE3DE0012905D116
:100CC00040F240012248FFF76FFE04E040F240018D
:100CD0001F48FFF73FFE2FE0012905D140F28001B8
:100CE0001B48FFF761FE04E040F280011848FFF75F
:100CF00031FE21E0012020E000283FF453AF01281D
:100D00003FF45EAF02283FF469AF03283FF474AFAD
:100D100004283FF47FAF05283FF48AAF06283FF44C
:100D200095AF0728A0D00828ACD00928B8D00A2849
:100D3000C4D00B28D0D0DDE70020DDF800E001B002
:100D4000704700BF0008014000100140001401403E
:100D5000000C014081B0CDF800E0011D0A68016877
:100D6000C8B21146034AFFF767FD0020DDF800E036
:100D700001B07047B41E000093B20246C8B299B2E7
:100D80008CB24B1E99B214B11070521CF8E7704728
:100D900081B0002424B2072C4DDA01252DB2B5F123
:100DA000FF3F45DD61003E48401841190878400882
:100DB0000870012D09D1610039484018007800F011
:100DC0000100C0B20001C2B228E03648007800F04D
:100DD0000100C0B228B933480078C01CADF800004B
:100DE00004E030480078401CADF80000282000FBEB
:100DF00004F12D484118BDF90000081802782B4B6A
:100E00001988012000B2884000B2024018460088CC
:100E1000C0F1040189B2D0B28840C2B2610020485A
:100E2000401841190878104308706D1E2DB2B6E7BE
:100E3000641C24B2AFE71D490888401C80B20880BA
:100E400004282BD9002119480180164A1078411C2A
:100E5000C9B211701648007881421FD900231BB215
:100E6000072B15DA002424B2022C0EDA59000C48A4
:100E700040180219282000FB03F10B484018001904
:100E800000781070641C24B2EEE75B1C1BB2E7E72D
:100E900000210448017000210648017001B070472C
:100EA00017000020160000202E0000201400002053
:100EB0002700002025000020014640F200000A46DD
:100EC000117819B1521C401C80B2F9E77047FFFF3E
:100ED00083B0CDF800E00290FFF74AFDFFF700FD78
:100EE000002109B2ADF80410BDF90410072913DA86
:100EF000BDF904104A0012B202998918084602216D
:100F0000FFF70AFDFFF7C4FCFFF77AFCBDF90410F8
:100F1000491CADF80410E7E7DDF800E003B07047C6
:100F2000026803490A60011D0A6802490A607047A5
:100F30004C01002058010020026808490A6000F2B4
:100F400008010A6806490A60011D0A6805490A6025
:100F500000F218010A6804490A6070475001002035
:100F6000540100202800002048010020072805D84F
:100F70000A2903D810B1002900D000E021E0062999
:100F800010D2421E12B253000E4AD218541C4B1EED
:100F90001BB2012212B202FA03F31BB222781A43E7
:100FA00022700EE0421E12B25300064AD4188B1F64
:100FB0001BB2012212B202FA03F31BB222781A43C7
:100FC0002270704717000020632800D94BE00A28E0
:100FD00014D200F2300109B2CA0012B222498B18B1
:100FE000002000B2072808DA420020498A18197840
:100FF00011705B1C401C00B2F4E734E00A21B0FB26
:10100000F1F1C9B2CAB202F2300109B2CA0012B299
:1010100015498C1800231BB2072B09DA5A00134913
:1010200089184A1C21781170641C5B1C1BB2F3E701
:101030000A22B0FBF2F102FB1101C9B2C8B200F200
:10104000300109B2CA0012B207498B18002000B261
:10105000072808DA420005498A18197811705B1CC4
:10106000401C00B2F4E77047B416000017000020DF
:1010700081B0CDF800E05FFA81F95FFA82FA0FE003
:101080005FFA8AF15FFA89F0FFF79AFC0DE05FFAE8
:101090008AF15FFA89F0FFF781FD06E0012004E0A4
:1010A0000028EDD00128F2D0F8E7DDF800E001B02B
:1010B0007047FFFF02480088411C014801807047CB
:1010C0002C000020002101480170704725000020FD
:1010D00081B0CDF800E00E2200210348FFF74CFE5E
:1010E000DDF800E001B070471700002081B0CDF8B6
:1010F00000E003460846FFF713FF1846FFF71CFF02
:10110000DDF800E001B0704782B0CDF800E00546A0
:10111000FFF7D2FE38490870C1B2282902D9282227
:1011200035490A7040F2181200213448FFF724FEB6
:10113000002000B22B463049097888423EDA1978FF
:10114000CA0012B22E498D185C1C022212B290FB0A
:10115000F2F102FB110109B299B900231BB2072B6E
:101160000DDA282101FB03F224498A18411C09B237
:101170005218297811706D1C5B1C1BB2EFE72346D7
:1011800019E0002109B203B220460CB2072C0DDA97
:10119000282101FB04F219498A18591E09B2521874
:1011A000297811706D1C641C24B2EFE7ADF804308F
:1011B0000346BDF90400401C00B2BCE7002000B2A9
:1011C000072815DA002424B2022C0EDA42000D4959
:1011D00089180B19282101FB00F2084989180919FF
:1011E00009781970641C24B2EEE7401C00B2E7E7EE
:1011F000DDF800E002B07047270000202E0000203C
:10120000B41600001700002081B0CDF800E01E48A1
:101210000078002830D01DE01C480088072804D939
:10122000FFF7B6FD0021194801801FE0174800882C
:10123000052804D9FFF7ACFD00211448018015E012
:1012400012480088012804D9FFF7A2FD00210F48A9
:1012500001800BE00E4800780028DDD00C480078B3
:101260000128E3D00A4800780228E9D00948FFF7AE
:101270002FFE0548007803E00648FFF729FE01200D
:10128000DDF800E001B07047250000202C000020B0
:101290002600002017000020012204490A7004499A
:1012A0000870002203490A80704700BF2500002013
:1012B000260000202C00002081B0CDF800E08B46F5
:1012C00009E05846FFF758FC0AE05846FFF742FD90
:1012D00006E0012004E00028F3D00128F5D0F8E76B
:1012E000DDF800E001B0704781B0CDF800E00022E9
:1012F00000210020FFF7BCFE002201210020FFF7A3
:10130000B7FE002202210020FFF7B2FE00220621D4
:101310000020FFF7ADFE0A4801460020FFF7CCFF92
:1013200044F67F77C0F212077F1EFDD100BF00BFD9
:1013300000BF00BF00BFDDF800E001B0704700BF94
:10134000A01F000081B0CDF800E005490548FFF777
:10135000CDFEFFF7BDFEDDF800E001B0704700BF35
:10136000981F0000201F000081B01548006840F061
:1013700001011348016013491348016010480168D6
:10138000124801400E4801600D4801686FF480204A
:1013900001400B4801600C4801686FF4FE000140F9
:1013A00009480160064801686FF0A05001400448F8
:1013B00001604FF000010648016001B0704700BFB6
:1013C000001002400000FFF004100240FFFFF6FE94
:1013D0002C10024081B01CF8019B0BF8019BBBEB69
:1013E0000A0FF8D101B0704781B04FF000094FF0FB
:1013F000000CBDEB0A0F04DCBDEB0B0F01DBD44688
:10140000EA464BF8049BBBEB0A0FFAD1BCEB0A0F80
:1014100005DDE246D9F800B00BF1040BF1E701B0AD
:101420007047FFFFFFFFFFFF83B0CDF800E0012012
:101430008DF809003E48FFF767FE0120FFF72CFFFB
:101440009DF8090088B1FFF7DFFE8DF80900FFF76E
:1014500031FE42F6DF67C0F200077F1EFDD100BFFC
:1014600000BF00BF00BF00BFEAE7FFF72BFEFFF79A
:101470002FFE00208DF808009DF808000B2824D2CC
:10148000FFF726FE9DF80800FFF79EFD0022D1B26F
:101490001E2914D28DF80410FFF7B6FE9DF8041033
:1014A00042F6DF67C0F200077F1EFDD100BF00BF1C
:1014B00000BF00BF00BF481CC2B2D1B2E8E79DF830
:1014C0000800401C8DF80800D6E7FFF701FE032155
:1014D0000220FFF74BFD08210220FFF747FD032103
:1014E0000620FFF743FD08210620FFF73FFD0020FF
:1014F0008DF808009DF80800B0F1FF0F12D2FFF739
:1015000083FE42F6DF67C0F200077F1EFDD100BFF9
:1015100000BF00BF00BF00BF9DF80800401C8DF851
:101520000800E7E7FFF7D4FDDDF800E003B07047FF
:101530000000002081B002490248016001B07047FC
:10154000401901006401002081B0FEE701B070473E
:1015500081B0CDF800E0464A464B474C47494BF630
:101560008030814206D94648006840F00201444874
:10157000016011E045F6C050814206D9404800683C
:1015800040F001013E48016006E03D4801686FF00F
:10159000070001403A480160FFF7E6FE3948036062
:1015A00039480460394802EA00013948016002F014
:1015B000010040B119463648006800F002000028DA
:1015C00000D1F8E700E0194602F4803040B10B4644
:1015D0002F48006800F40030002800D1F8E700E050
:1015E0000B4602F0805068B12948006840F08051F5
:1015F000274801602648006800F00050002800D10C
:10160000F8E7FFE702F0806078B12148006840F019
:1016100080611F48016011461A461D48006800F0AD
:101620000060002800D1F8E701E011461A4601F0F9
:10163000807070B11648006840F0807114480160F5
:1016400011461348006800F0007000B9F9E70A4637
:10165000FFE70C48006800F00C01900000F00C005F
:10166000814200D0F5E7DDF800E001B0704700BF2F
:101670008100010502841D0044060100401901009B
:1016800000200240041002402C100240FFFF0F0017
:1016900000100240FFF75CFF00F0C6FCFFF74AFFB6
:1016A00000F082FCFFF720FEFFF74CFEFFF7BCFEC8
:1016B000FCE7FEE700000000000000000000000062
:1016C000000000000000000000000000000000001A
:1016D000000000000000000000000000000000000A
:1016E00000000000000000000000000000000000FA
:1016F00000000000000000000000000000000000EA
:1017000000000000000000000000000000000000D9
:1017100000000000000000000000000000000000C9
:1017200000000000000000000000000000000000B9
:1017300000000000000000000000000000000000A9
:101740000000000000000000000000000000000099
:101750000000000000000000000000000000000089
:101760000000000000000000000000000000000079
:101770000000000000000000000000000000000069
:101780000000000000000000000000000000000059
:101790000000000000000000000000000000000049
:1017A0000000000000000000000000000000000039
:1017B0000000000000000000000000000404040419
:1017C000000004000A0A0A00000000000A0A1F0ABA
:1017D0001F0A0A00041E050E140F04000313080458
:1017E0000219180006090502150916000604020070
:1017F00000000000080402020204080002040808B5
:10180000080402000004150E150400000004041F63
:101810000404000000000000060402000000001F95
:101820000000000000000000000606000010080490
:10183000020100000E11191513110E000406040414
:1018400004040E000E11100804021F001F080408F3
:1018500010110E00080C0A091F0808001F010F10C4
:1018600010110E000C02010F11110E001F100804C0
:10187000020202000E11110E11110E000E11111EA6
:101880001008060000060600060600000006060016
:1018900006040200080402010204080000001F0000
:1018A0001F00000002040810080402000E111008B6
:1018B000040004000E11101615150E000E11111162
:1018C0001F1111000F11110F11110F000E11010145
:1018D00001110E0007091111110907001F01010F65
:1018E00001011F001F01010F010101000E11011D67
:1018F00011111E001111111F111111000E04040409
:1019000004040E001C080808080906001109050354
:10191000050911000101010101011F00111B15152D
:101920001111110011111315191111000E111111BE
:1019300011110E000F11110F010101000E111111F3
:10194000150916000F11110F050911001E01010ED6
:1019500010100F001F0404040404040011111111DD
:1019600011110E0011111111110A0400111111159C
:1019700015150A0011110A040A1111001111110A9A
:10198000040404001F10080402011F000E020202DA
:1019900002020E0000010204081000000E080808F0
:1019A00008080E00040A11000000000000000000FA
:1019B00000001F000C0408000000000000000E10D2
:1019C0001E111E0001010F1111110F0000001E0158
:1019D00001011E0010101E1111111E0000000E1139
:1019E0001F010E0018041F040404040000001E114F
:1019F0001E100E0001010D13111111000400060448
:101A000004040E0008000C08080906000202120A6D
:101A1000060A12000604040404040E0000000B155C
:101A20001515150000000D131111110000000E1105
:101A300011110E0000000F110F01010000001E1116
:101A40001E10100000001A060202020000000E0123
:101A50000E100F0004041F040404180000001111EC
:101A60001119160000001111110A040000001111D3
:101A700015150A000000110A040A110000001111D6
:101A80001E100E0000001F0804021F0018040402AC
:101A900004041800040404040404040003040408F7
:101AA000040403000215080000000000000000000C
:101AB0000000000000000000000000000000000026
:101AC0000000000000000000000000000000000016
:101AD0000000000000000000000000000000000006
:101AE00000000000000000000000000000000000F6
:101EB000000000002A0000002B0000002C000000A1
:101EC000FFFFFFFF00000000000000000000000016
:101ED0000000000000000000000000000000000002
:101EE00000000000000000001808000018080000B2
:101EF00018080000000000000000000000000000C2
:101F000000000000000000000000000000000000D1
:101F10000000000000000000000000000011200888
:101F2000F5070000E9070000DD020000550300008E
:101F300061030000310300002503000019030000C5
:101F40003D030000490300000D030000D102000022
:101F5000FFFFFFFFFFFFFFFFFFFFFFFFFFFFFFFF91
:101F6000FFFFFFFFFFFFFFFFFFFFFFFFFFFFFFFF81
:101F7000FFFFFFFFFFFFFFFFFFFFFFFFFFFFFFFF71
:101F800020204D696B726F20456C656B74726F6EAB
:101F9000696B6100000000FF89030000FFFFFFFF85
:101FA000000000000403000000B5DFF814B0DFF803
:101FB00014A0DFF814C0FFF70DFA00BD704700BF92
:101FC0000000002017000020801F0000FFFFFFFF1F
:101FD000FFFFFFFFFFFFFFFFFFFFFFFFFFFFFFFF11
:101FE000FFFFFFFFFFFFFFFFFFFFFFFFFFFFFFFF01
:101FF000FFFFFFFFFFFFFFFFFFFFFFFFFFFFFFFFF1
:10200000FFFFFFFFFFFFFFFFFFFFFFFFFFFFFFFFE0
:10201000FFFFFFFFFFFFFFFFFFFFFFFFFFFFFFFFD0
:10202000FFFFFFFFFFFFFFFF00B5DFF810B0DFF895
:1020300010A0FFF7D9F900BD704700BF00000020D5
:1020400068010020FFFFFFFFFFFFFFFFFFFFFFFF13
:00000001FF
