:10000000FCFF0320391C0000C11A0000C11A0000C7
:10001000C11A0000C11A0000C11A0000C11A000074
:10002000C11A0000C11A0000C11A0000C11A000064
:10003000C11A0000C11A0000C11A0000C11A000054
:10004000C11A0000C11A0000C11A0000C11A000044
:10005000C11A0000C11A0000C11A0000C11A000034
:10006000C11A0000C11A0000C11A0000C11A000024
:10007000C11A0000C11A0000C11A0000C11A000014
:10008000C11A0000C11A0000C11A0000C11A000004
:10009000C11A0000C11A0000C11A0000C11A0000F4
:1000A000C11A0000C11A0000C11A0000C11A0000E4
:1000B000C11A0000C11A0000C11A0000C11A0000D4
:1000C000C11A0000C11A0000C11A0000C11A0000C4
:1000D000C11A0000C11A0000C11A0000C11A0000B4
:1000E000C11A0000C11A0000C11A0000C11A0000A4
:1000F000C11A0000C11A0000C11A0000C11A000094
:10010000C11A0000C11A0000C11A0000C11A000083
:10011000C11A0000C11A0000C11A0000C11A000073
:10012000C11A0000C11A0000C11A0000C11A000063
:10013000C11A0000C11A0000C11A0000C11A000053
:10014000C11A0000C11A0000C11A0000C11A000043
:10015000C11A0000C11A0000C11A0000C11A000033
:10016000C11A0000C11A0000C11A0000C11A000023
:10017000C11A0000C11A0000C11A0000C11A000013
:10018000C11A0000C11A0000C11A0000C11A000003
:10019000C11A0000C11A0000C11A0000C11A0000F3
:1001A000C11A0000C11A0000C11A0000C11A0000E3
:1001B000C11A0000C11A0000C11A0000C11A0000D3
:1001C000C11A0000C11A0000C11A0000C11A0000C3
:1001D000C11A0000C11A0000C11A0000C11A0000B3
:1001E000C11A0000C11A0000C11A0000C11A0000A3
:1001F000C11A0000C11A0000C11A0000C11A000093
:08020000C11A0000C11A000040
:101C3800FFF766FFFFF744FF00F006FDFFF756FFCA
:101C480000F0C2FCFFF748FEFFF7FCFEFFF774FE4A
:041C5800FCE7FEE7C0
:101A700081B01CF8019B0BF8019BBBEB0A0FF8D15E
:041A800001B07047FA
:101A840081B04FF000094FF0000CBDEB0A0F04DCED
:101A9400BDEB0B0F01DBD446EA464BF8049BBBEBD2
:101AA4000A0FFAD1BCEB0A0F05DDE246D9F800B003
:0A1AB4000BF1040BF1E701B07047DD
:1018E00081B0CDF800E0002200210020FFF72CFE9F
:1018F000002201210020FFF727FE00220221002004
:10190000FFF722FE002206210020FFF71DFE0A48F5
:1019100001460020FFF7E4FE40F6FE07C0F23D0757
:101920007F1EFDD100BF00BF00BF00BF00BFDDF8BC
:0C19300000E001B0704700BFB0250000CF
:1015480081B0CDF800E05FFA81FA5FFA82FB0FE024
:101558005FFA8BF15FFA8AF0FFF730FE0DE05FFA71
:101568008BF15FFA8AF0FFF74DFD06E0012004E0F9
:101578000028EDD00128F2D0F8E7DDF800E001B04E
:021588007047AA
:1011C40081B0CDF800E091E0012904D110215A4802
:1011D400FFF78EFE03E010215748FFF773FEA5E0EA
:1011E400012904D101215448FFF782FE03E00121C3
:1011F4005148FFF767FE99E0012904D101214F48C6
:10120400FFF776FE03E001214C48FFF75BFE8DE01B
:10121400012904D104214A48FFF76AFE03E00421AE
:101224004748FFF74FFE81E0012904D110214448CB
:10123400FFF75EFE03E010214148FFF743FE75E02F
:10124400012904D120213E48FFF752FE03E020216A
:101254003B48FFF737FE69E0012904D101213948F1
:10126400FFF746FE03E001213648FFF72BFE5DE061
:10127400012904D110213448FFF73AFE03E010217C
:101284003148FFF71FFE51E0012904D140212F48C6
:10129400FFF72EFE03E040212C48FFF713FE45E044
:1012A400012904D180212948FFF722FE03E080218F
:1012B4002648FFF707FE39E0012904D104211F481D
:1012C400FFF716FE03E004211C48FFF7FBFD2DE0A9
:1012D400012904D108211948FFF70AFE03E0082177
:1012E4001648FFF7EFFD21E0012020E000283FF43D
:1012F4006BAF01283FF474AF02283FF47DAF03289D
:101304003FF486AF04283FF48FAF05283FF498AF2D
:1013140006283FF4A1AF0728AAD00828B4D009288A
:10132400BED00A28C8D00B28D2D0DDE70020DDF8D3
:1013340000E001B0704700BF00C0054000900540C8
:101344000080054000B0054000D0054000A00540E5
:100EF40081B0CDF800E0002440F240031BB240F280
:100F0400001212B21A4393B2002210B4FFF7C6FBC8
:0A0F140001B0DDF800E001B0704705
:1006A00082B0CDF800E05FFA81F8D5B29FB29DF834
:1006B0000830F54C00EA0404A1462046FFF7B4FDDB
:1006C000F24CA54208D109F580666FEA0805EDB243
:1006D00034682C40346008E0ED4CA54205D109F5A2
:1006E00080652C6844EA08042C6040F2010407EAA3
:1006F0000404A4B234B109F5A2652C6844EA0804E4
:100700002C6007E009F5A2666FEA0805EDB23468CF
:100710002C40346040F2020407EA0404A4B234B16D
:1007200009F214552C6844EA08042C6007E009F229
:1007300014566FEA0805EDB234682C40346040F27C
:10074000080407EA0404A4B234B109F20C552C6879
:1007500044EA08042C6007E009F20C566FEA080529
:10076000EDB234682C40346040F2100407EA04040F
:10077000A4B234B109F5A0652C6844EA08042C60E1
:1007800007E009F5A0666FEA0805EDB234682C4071
:10079000346040F2200407EA0404A4B234B109F240
:1007A00004552C6844EA08042C6007E009F204565A
:1007B0006FEA0805EDB234682C40346040F2400422
:1007C00007EA0404A4B234B109F5A1652C6844EA2F
:1007D00008042C6007E009F5A1666FEA0805EDB290
:1007E00034682C40346041F2000407EA0404A4B2E7
:1007F000012C13D042F2000407EA0404A4B2012C35
:100800000CD044F2000407EA0404A4B2012C05D081
:10081000DEB24B46B8B25FFA88F53CE00020002615
:10082000DAB2BBB207465FFA88F04946082E13D207
:1008300020FA06F4E4B204F00104E4B24CB175000D
:100840002DB2032424B2AC4024B247EA04052F465B
:10085000FFE7761CF6B2E9E701F6C476FD4334689B
:100860002C40346001F23C56C543EDB234682C4054
:10087000346001F5A166C543EDB234682C403460A4
:1008800001F20456C543EDB234682C403460C5B261
:1008900098B20B46D6B2002141F2000400EA0404EB
:1008A000A4B23CB300220F46E9B2082A13D221FABF
:1008B00002F4E4B204F00104E4B24CB155002DB2EC
:1008C000012424B2AC4024B247EA04052F46FFE7D6
:1008D000521CD2B2E9E703F6C4752C683C432C6085
:1008E00003F5A1652C680C432C603D461F4683B27E
:1008F000C8B203E01F4683B2E8B20D4642F20004DC
:1009000003EA0404A4B26CB30022A8463946082ABC
:1009100013D220FA02F4E4B204F00104E4B24CB1C0
:1009200055002DB2032424B2AC4024B248EA040599
:10093000A846FFE7521CD2B2E9E701F6C4752C685D
:1009400044EA08042C6001F23C552C6804432C60F6
:1009500001F5A1652C6804432C60F7B20E46C2B2C3
:1009600098B205E00197C2B298B2F7B2A846019ECC
:1009700044F2000400EA0404A4B284B30023D1B218
:10098000082B14D221FA03F4E4B204F00104E4B217
:1009900054B15D002DB2032424B2AC4024B248EA25
:1009A000040422469046FFE75B1CDBB2E8E706F64C
:1009B000C4752C6844EA08042C6006F23C552C6887
:1009C0000C432C6006F5A1652C680C432C6006F2E4
:1009D00004552C680C432C60FBB2324602E0D1B2C5
:1009E0003246FBB240F2800400EA0404A4B274B1BF
:1009F00040F2400400EA0404A4B22CB102F5A3655D
:100A00002C680C432C6001E00120FAE006E002F5BE
:100A1000A366CD43EDB234682C40346040F200143C
:100A200000EA0404A4B22CB102F21C552C680C4359
:100A30002C6006E002F21C56CD43EDB234682C4027
:100A4000346040F2002400EA0404A4B2002C3AD03E
:100A5000104CA24240F2000500D001250E4CA242EB
:100A600040F2000400D0012425400C4CA24240F288
:100A7000000400D001242540094CA24240F20004A9
:100A800000D0012425400DE000F0FFFF0000000031
:100A90000100000000C0054000B005400090054086
:100AA00000100640594CA24240F2000400D001243C
:100AB00005EA04040CB10120A3E002F5A5652C6849
:100AC0000C432C602AE0524CA24240F2000500D1B7
:100AD0000125504CA24240F2000400D101242543DC
:100AE0004D4CA24240F2000400D1012425434B4C5E
:100AF000A24240F2000400D101242543434CA2420B
:100B000040F2000400D1012445EA040434B102F5A6
:100B1000A566CD43EDB234682C40346040F6000445
:100B200000EA0404A4B22CB102F5A6652C680C43BB
:100B30002C6006E002F5A666CD43EDB234682C4089
:100B4000346040F2004400EA0404A4B22CB102F57F
:100B500084652C680C432C6006E002F58466CD4366
:100B6000EDB234682C4034600BB9002049E00F2B03
:100B700001D9012045E0002700208DF80430C3B2E0
:100B800010469DF80420082B12D221FA03F4E4B297
:100B900004F00104E4B244B19D002DB24FF00F0403
:100BA000AC4047EA04052F46FFE75B1CDBB2EAE7EF
:100BB00000F22C56FD4334682C403460002600239C
:100BC0008DF80430CBB29DF80410082913D223FA13
:100BD00001F4E4B204F00104E4B24CB1D5B28C00EB
:100BE00024B205FA04F446EA040425462E46FFE73B
:100BF000491CC9B2E9E700F22C552C6834432C603B
:100C00000020DDF800E002B0704700BF0050064051
:100C100000C0054000B005400090054000100640AF
:1002280081B0664900EA010108467DE06449096831
:1002380041F0010262490A60BEE06149096841F083
:1002480002025F490A60B7E05D49096841F00402AB
:100258005B490A60B0E05A49096841F00802584908
:100268000A60A9E05649096841F0100254490A6039
:10027800A2E05349096841F0200251490A609BE015
:100288004F49096841F040024D490A6094E04C49E1
:10029800096841F080024A490A608DE048490968C6
:1002A80041F4807246490A6086E04549096841F48C
:1002B800007243490A607FE04149096841F480625D
:1002C8003F490A6078E03E49096841F400623C49C8
:1002D8000A6071E03A49096841F4805238490A6075
:1002E8006AE03749096841F4005235490A6063E019
:1002F8003349096841F4804231490A605CE0304979
:10030800096841F400422E490A6055E02C49096801
:1003180041F480322A490A604EE02949096841F4CB
:10032800003227490A6047E0264988423FF47EAFF9
:10033800254988423FF481AF244988423FF484AF7D
:10034800234988423FF487AF224988423FF48AAF65
:10035800214988423FF48DAF204988423FF490AF4D
:100368001F4988423FF493AF1E4988423FF496AF35
:100378001D4988423FF499AF1C4988423FF49CAF1D
:100388001B4988423FF49FAF1A4988423FF4A2AF05
:10039800194988423FF4A5AF184988423FF4A8AFED
:1003A800174988423FF4ABAF164988423FF4AEAFD5
:1003B800154988423FF4B1AF01B0704700F0FFFF24
:1003C80008E60F40008005400090054000A0054069
:1003D80000B0054000C0054000D0054000E00540E1
:1003E80000F00540000006400010064000200640CE
:1003F80000300640004006400050064000600640BD
:0C04080000700640008006400090064096
:100EC80081B0CDF800E0002440F240031BB240F2AC
:100ED800001212B21A4393B2012210B4FFF7DCFBDE
:0A0EE80001B0DDF800E001B0704732
:10100C0081B0CDF800E091E0012904D120215A48AB
:10101C00FFF76AFF03E020215748FFF74FFFA5E0D9
:10102C00012904D102215448FFF75EFF03E002219D
:10103C005148FFF743FF99E0012904D120214F4883
:10104C00FFF752FF03E020214C48FFF737FF8DE0FC
:10105C00012904D104214A48FFF746FF03E004218B
:10106C004748FFF72BFF81E0012904D110214448A8
:10107C00FFF73AFF03E010214148FFF71FFF75E02F
:10108C00012904D120213E48FFF72EFF03E0202147
:10109C003B48FFF713FF69E0012904D102213948CD
:1010AC00FFF722FF03E002213648FFF707FF5DE060
:1010BC00012904D140213348FFF716FF03E04021FA
:1010CC003048FFF7FBFE51E0012904D110212E48D6
:1010DC00FFF70AFF03E010212B48FFF7EFFE45E076
:1010EC00012904D120212848FFF7FEFE03E020212E
:1010FC002548FFF7E3FE39E0012904D104211F48FC
:10110C00FFF7F2FE03E004211C48FFF7D7FE2DE0A9
:10111C00012904D108211948FFF7E6FE03E0082154
:10112C001648FFF7CBFE21E0012020E000283FF419
:10113C006BAF01283FF474AF02283FF47DAF032856
:10114C003FF486AF04283FF48FAF05283FF498AFE7
:10115C0006283FF4A1AF0728AAD00828B4D0092844
:10116C00BED00A28C8D00B28D2D0DDE70020DDF88D
:10117C0000E001B0704700BF00C005400090054082
:0C118C000080054000B0054000A00540B8
:1016E00081B0CDF800E009E00846FFF755FD0AE0BB
:1016F0000846FFF775FC06E0012004E00028F3D05F
:0E1700000128F5D0F8E7DDF800E001B07047F1
:1011980081B0CDF800E000F208010B68011D0A6873
:1011A8000168084691B29AB2034BFFF797FD0020F9
:0C11B800DDF800E001B070475C2400008E
:100CE4008AB0CDF800E008901846ADF824200DF144
:100CF400140B0BF10B0ADFF82CC100F0B7FEADF8B2
:100D04000410FFF78BFFBDF8041001256DB2464CAB
:100D14002560464C206800256DB2454C2560454C45
:100D24002160BDF82450444C2560444D444C25605A
:100D3400444D454C2560FFF7A5FC40F2E83400FB28
:100D440004F5089CB5FBF4F4029429B9029C022C26
:100D540001DA0224029404E0029C0C2C01DA0C2433
:100D64000294022424B2ADF81040BDF91040B4F14D
:100D7400FF0F41DA002212B210B2B0F5807F30DAF0
:100D8400BDF91050441C24B26543029C641B0394B7
:100D9400002C04DA039D4FF0FF346C43039410B924
:100DA400039C069404E0039D069CAC4200DA18E020
:100DB400039D059CAC4202DC039C04B107E0039C48
:100DC4000594BDF910408DF81C408DF81D00059C5C
:100DD4001CB901248DF81E4003E0441C22B210B259
:100DE400CBE79DF81E40012C00D105E0BDF9104071
:100DF400A41CADF81040B8E79DF81C50134C2560B6
:100E04009DF81D4025022DB20B4C246844EA0505CB
:100E1400094C256001256DB2054C2560DDF800E024
:100E24000AB07047BC25000080C3FC431CE60F4099
:100E3400840010420480004000800040350400001B
:100E44006001002039060000640100201080004089
:100C200081B0CDF800E040F2000B82460AF1D80115
:100C300009788B4539D20C210BFB01F10AEB01013C
:100C40008C460CF108010978A9B90CF10801097862
:100C5000CCB20CF1060109888BB20CF104010978C1
:100C6000CAB2DCF800100846D1B2002210B4FFF777
:100C700017FD01B014E00CF108010978CCB20CF1B9
:100C8000060109888BB20CF104010978CAB2DCF8BC
:100C900000100846D1B20F2210B4FFF701FD01B0D9
:100CA0000BF1010B5FFA8BFBC0E7DDF800E001B050
:020CB00070478B
:0C06880001480068704700BF5C010020C2
:100FE00081B0CDF800E000F208010B68011D0A682D
:100FF0000168084691B29AB2034BFFF773FE0020D6
:0C100000DDF800E001B070475C24000047
:101A4C0081B0CDF800E005490548FFF769FEFFF7C6
:101A5C0059FEDDF800E001B0704700BFC82500005A
:041A6C003825000019
:10172C0081B0CDF800E003460846FFF7FBFE1846F3
:0C173C00FFF70AFEDDF800E001B0704786
:10153000026803490A60011D0A6802490A6070478F
:081540002C00002058010020DE
:10135400026808490A6000F208010A6806490A603E
:10136400011D0A6805490A6000F218010A68044967
:101374000A6070473400002030000020540100202F
:04138400180000202D
:1017100081B0CDF800E00E2200210348FFF734FE2F
:0C172000DDF800E001B070471C00002064
:1013880093B20246C8B299B28CB24B1E99B214B14C
:081398001070521CF8E77047C9
:1019400083B0CDF800E001208DF809003E48FFF794
:101950000BFF0120FFF7F8FE9DF8090088B1FFF7A3
:1019600015FE8DF80900FFF759FE49F63E47C0F213
:1019700000077F1EFDD100BF00BF00BF00BF00BF3A
:10198000EAE7FFF753FEFFF7C3FE00208DF80800DB
:101990009DF808000B2824D2FFF7BAFE9DF8080036
:1019A000FFF74AFE0022D1B21E2914D28DF804108E
:1019B000FFF7ECFD9DF8041049F63E47C0F2000722
:1019C0007F1EFDD100BF00BF00BF00BF00BF481C8D
:1019D000C2B2D1B2E8E79DF80800401C8DF80800BB
:1019E000D6E7FFF795FE03210220FFF73DFF082110
:1019F0000220FFF739FF03210620FFF735FF0821FA
:101A00000620FFF731FF00208DF808009DF8080040
:101A1000B0F1FF0F12D2FFF7B9FD49F63E47C0F211
:101A200000077F1EFDD100BF00BF00BF00BF00BF89
:101A30009DF80800401C8DF80800E7E7FFF768FEF6
:0C1A4000DDF800E003B07047000000205B
:1017680082B0CDF800E00546FFF716FE384908704C
:10177800C1B2282902D9282235490A7040F2181224
:1017880000213448FFF7FCFD002000B22B46304909
:10179800097888423EDA1978CA0012B22E498D18A3
:1017A8005C1C022212B290FBF2F102FB110109B299
:1017B80099B900231BB2072B0DDA282101FB03F28C
:1017C80024498A18411C09B25218297811706D1CD5
:1017D8005B1C1BB2EFE7234619E0002109B203B2F4
:1017E80020460CB2072C0DDA282101FB04F2194916
:1017F8008A18591E09B25218297811706D1C641C78
:1018080024B2EFE7ADF804300346BDF90400401CEC
:1018180000B2BCE7002000B2072815DA002424B281
:10182800022C0EDA42000D4989180B19282101FBF8
:1018380000F208498918091909781970641C24B23A
:10184800EEE7401C00B2E7E7DDF800E002B07047C1
:1018580038000020390000205C1C00001C0000201B
:1013A000014640F200000A46117819B1521C401C57
:0613B00080B2F9E770476E
:10174800012204490A7004490870002203490A80EA
:10175800704700BF17000020510100202A00002018
:10158C0081B0CDF800E01E480078002830D01DE076
:10159C001C480088072804D9FFF730FF00211948A0
:1015AC0001801FE017480088052804D9FFF726FFA3
:1015BC0000211448018015E012480088012804D944
:1015CC00FFF71CFF00210F4801800BE00E4800784C
:1015DC000028DDD00C4800780128E3D00A480078B8
:1015EC000228E9D00948FFF7E1FE0548007803E03E
:1015FC000648FFF7DBFE0120DDF800E001B0704784
:10160C00170000202A000020510100201C0000209F
:1014080081B0002424B2072C4DDA01252DB2B5F1A4
:10141800FF3F45DD61003E48401841190878400803
:101428000870012D09D1610039484018007800F092
:101438000100C0B20001C2B228E03648007800F0CE
:101448000100C0B228B933480078C01CADF80000CC
:1014580004E030480078401CADF80000282000FB6C
:1014680004F12D484118BDF90000081802782B4BEB
:101478001988012000B2884000B20240184600884E
:10148800C0F1040189B2D0B28840C2B261002048DC
:10149800401841190878104308706D1E2DB2B6E740
:1014A800641C24B2AFE71D490888401C80B208803C
:1014B80004282BD9002119480180164A1078411CAC
:1014C800C9B211701648007881421FD900231BB297
:1014D800072B15DA002424B2022C0EDA59000C4826
:1014E80040180219282000FB03F10B484018001986
:1014F80000781070641C24B2EEE75B1C1BB2E7E7AF
:1015080000210448017000210648017001B07047AD
:101518001C000020160000203900002014000020C4
:0815280038000020170000202C
:1013B80083B0CDF800E00290FFF7D6FDFFF764FD9B
:1013C800002109B2ADF80410BDF90410072913DA99
:1013D800BDF904104A0012B2029989180846022180
:1013E800FFF734FDFFF798FDFFF7DAFDBDF90410AC
:1013F800491CADF80410E7E7DDF800E003B07047DA
:100F700081B0CDF800E000200A4C2468A04740F280
:100F80002607C0F2000700BF00BF7F1EFDD100BFD3
:100F900000BF00BF0120034C2468A047DDF800E03B
:080FA00001B07047540100206C
:0C06940001490860704700BF907FB84229
:0C0CD80001490860704700BF807FB842EF
:0C0CB40001490860704700BF807FB24219
:0C0CC00001490860704700BF887FB04207
:0C0CCC0001490860704700BF907FB042F3
:0C04740001490860704700BF947FB0424F
:0C048C0001490860704700BF807FB64245
:0C05040001490860704700BF907FBA42B8
:0C051C0001490860704700BF987FB4429E
:0C04F80001490860704700BF9C7FB442BF
:0C04EC0001490860704700BF887FB242E1
:0C04E00001490860704700BF8C7FB242E9
:0C04D40001490860704700BF947FB842E7
:0C05100001490860704700BF847FB842BA
:0C04C80001490860704700BF947FB242F9
:0C04800001490860704700BF887FB0424F
:0C04980001490860704700BF907FB0422F
:0C04BC0001490860704700BF947FB04207
:0C04B00001490860704700BF847FB6421D
:0C04A40001490860704700BF987FB64215
:0C05280001490860704700BF907FB4429A
:0C062C0001490860704700BF947FB44291
:0C06200001490860704700BF887FB242AB
:0C06140001490860704700BF8C7FB242B3
:100E900081B0CDF800E001200A4C2468A04740F260
:100EA0002607C0F2000700BF00BF7F1EFDD100BFB4
:100EB00000BF00BF0020034C2468A047DDF800E01D
:080EC00001B07047180000208A
:100E540083B0CDF800E08AB2014690B283B2421E5C
:100E640090B26BB10A78D4B2ADF804000291A0B28A
:100E7400054C2468A0470299BDF80400491CEDE71D
:0C0E8400DDF800E003B070472C000020F7
:1006380081B0CDF800E0FFF7F9FEDDF800E001B089
:020648007047F9
:1004340081B0054908600549096801B9FBE702492B
:10044400086801B0704700BF08800040880110426E
:1006740081B0CDF800E0FFF7EBFEDDF800E001B05B
:020684007047BD
:1004540081B0054908600549096801B9FBE702490B
:10046400086801B0704700BF08900040880112423C
:1006600081B0CDF800E0FFF7D5FEDDF800E001B085
:020670007047D1
:1004140081B0054908600549096801B9FBE702494B
:10042400086801B0704700BF08A00040880114426A
:10064C0081B0CDF800E0FFF7D9FDDDF800E001B096
:02065C007047E5
:1002080081B0054908600549096801B9FBE7024959
:10021800086801B0704700BF08B000408801164266
:1005F80081B00449096801B1FBE70349086001B00B
:0C060800704700BF1403184200C00040FF
:10056C0081B00449096801B1FBE70349086001B097
:0C057C00704700BF14031A4200D000407A
:1005500081B00449096801B1FBE70349086001B0B3
:0C056000704700BF14031C4200E0004084
:1005340081B00449096801B1FBE70349086001B0CF
:0C054400704700BF14031E4200F000408E
:1005880081B00449096801B1FBE70349086001B07B
:0C059800704700BF140320420000014027
:1005DC0081B00449096801B1FBE70349086001B027
:0C05EC00704700BF1403224200100140C1
:1005C00081B00449096801B1FBE70349086001B043
:0C05D000704700BF1403244200200140CB
:1005A40081B00449096801B1FBE70349086001B05F
:0C05B400704700BF1403264200300140D5
:100F200081B0CDF800E00020104C2468A04740F2CA
:100F30002607C0F2000700BF00BF7F1EFDD100BF23
:100F400000BF00BF0120094C2468A04749F63E4776
:100F5000C0F2000700BF00BF7F1EFDD100BF00BF71
:100F600000BFDDF800E001B0704700BF3000002096
:100FA80081B0CDF800E001200A4C2468A04740F247
:100FB8002607C0F2000700BF00BF7F1EFDD100BF9B
:100FC80000BF00BF0020034C2468A047DDF800E004
:080FD80001B070473400002055
:10161C0002480088411C0148018070472A000020C4
:0C162C00002101480170704717000020E9
:10163800632800D94BE00A2814D200F2300109B21D
:10164800CA0012B222498B18002000B2072808DA13
:10165800420020498A18197811705B1C401C00B29E
:10166800F4E734E00A21B0FBF1F1C9B2CAB202F2E0
:10167800300109B2CA0012B215498C1800231BB2F6
:10168800072B09DA5A00134989184A1C2178117066
:10169800641C5B1C1BB2F3E70A22B0FBF2F102FBED
:1016A8001101C9B2C8B200F2300109B2CA0012B2BF
:1016B80007498B18002000B2072808DA42000549BC
:1016C8008A18197811705B1C401C00B2F4E7704747
:0816D8005C1C00001C00002056
:10186800072805D80A2903D810B1002900D000E0BC
:1018780021E0062910D2421E12B253000E4AD21895
:10188800541C4B1E1BB2012212B202FA03F31BB204
:1018980022781A4322700EE0421E12B25300064A02
:1018A800D4188B1F1BB2012212B202FA03F31BB227
:0C18B80022781A43227070471C000020A8
:101B080081B0CDF800E0344A344B354C354D364E73
:101B18004FF03011354801600021354801606FF001
:101B2800010003EA000133480160C3F3C00018B99B
:101B3800FFF7C6FEFFF7C4FEC3F3000018B101218A
:101B480049B22D4801602D48864203D92C492748BF
:101B5800016021E02B48864203D92B4923480160C4
:101B68001AE04CF25030864203D928491F480160D8
:101B780012E047F23050864203D925491B480160DC
:101B88000AE0B6F57A5F03D922491848016003E0F4
:101B98004FF03011154801601F4804601F48056068
:101BA8006FF0805002EA000111480160012149B23A
:101BB8001B4801601B48016002F0805038B11A4888
:101BC800006800B9FBE7012149B218480160DDF857
:101BD80000E001B0704700BF04003033110000007E
:101BE8001800800000000000C0D40100C0E00F40D1
:101BF800B0E00F407CE00F40800FFC43A08601005E
:101C0800960130008038010055013000D3003000C3
:101C1800B20030007100300060E10F4064E10F4015
:101C28007C16FC437816FC43002DFC437016FC43DD
:1018C80041F67E27C0F206077F1EFDD100BF00BF8C
:0818D80000BF00BF00BF704714
:101AF40081B002490248016001B07047C0D40100BE
:041B04005C01002060
:081AC00081B0FEE701B07047A0
:101AC80081B04EF68850CEF20000016841F47001F2
:101AD800016000BF00BF00BF00BFF1EE100A40F474
:0A1AE8004000E1EE100A01B0704763
:1025D00000B5DFF814B0DFF814A0DFF814C0FFF77F
:1025E00047FA00BD704700BF000000201700002020
:0425F000982500002A
:1026500000B5DFF810B0DFF810A0FFF713FA00BDE7
:0C266000704700BF00000020680100204F
:101C5C000000000000000000000000000000000078
:101C6C000000000000000000000000000000000068
:101C7C000000000000000000000000000000000058
:101C8C000000000000000000000000000000000048
:101C9C000000000000000000000000000000000038
:101CAC000000000000000000000000000000000028
:101CBC000000000000000000000000000000000018
:101CCC000000000000000000000000000000000008
:101CDC0000000000000000000000000000000000F8
:101CEC0000000000000000000000000000000000E8
:101CFC0000000000000000000000000000000000D8
:101D0C0000000000000000000000000000000000C7
:101D1C0000000000000000000000000000000000B7
:101D2C0000000000000000000000000000000000A7
:101D3C000000000000000000000000000000000097
:101D4C000000000000000000000000000000000087
:101D5C000000000000000000040404040000040063
:101D6C000A0A0A00000000000A0A1F0A1F0A0A00D9
:101D7C00041E050E140F04000313080402191800A6
:101D8C0006090502150916000604020000000000F1
:101D9C0008040202020408000204080808040200F5
:101DAC000004150E150400000004041F04040000B8
:101DBC0000000000060402000000001F00000000EC
:101DCC0000000000000606000010080402010000DC
:101DDC000E11191513110E000406040404040E0050
:101DEC000E11100804021F001F08040810110E0029
:101DFC00080C0A091F0808001F010F1010110E0013
:101E0C000C02010F11110E001F1008040202020037
:101E1C000E11110E11110E000E11111E10080600DC
:101E2C000006060006060000000606000604020076
:101E3C00080402010204080000001F001F0000003B
:101E4C0002040810080402000E111008040004001B
:101E5C000E11101615150E000E1111111F11110077
:101E6C000F11110F11110F000E11010101110E00B4
:101E7C0007091111110907001F01010F01011F00B2
:101E8C001F01010F010101000E11011D11111E0096
:101E9C001111111F111111000E04040404040E0081
:101EAC001C0808080809060011090503050911009A
:101EBC000101010101011F00111B15151111110068
:101ECC0011111315191111000E11111111110E0010
:101EDC000F11110F010101000E111111150916003E
:101EEC000F11110F050911001E01010E10100F002A
:101EFC001F040404040404001111111111110E002B
:101F0C0011111111110A04001111111515150A00E6
:101F1C0011110A040A1111001111110A0404040010
:101F2C001F10080402011F000E02020202020E0022
:101F3C0000010204081000000E08080808080E0032
:101F4C00040A1100000000000000000000001F0047
:101F5C000C0408000000000000000E101E111E00F2
:101F6C0001010F1111110F0000001E0101011E00D3
:101F7C0010101E1111111E0000000E111F010E0079
:101F8C0018041F040404040000001E111E100E008F
:101F9C0001010D13111111000400060404040E00BC
:101FAC0008000C08080906000202120A060A1200B0
:101FBC000604040404040E0000000B15151515008E
:101FCC0000000D131111110000000E1111110E0063
:101FDC0000000F110F01010000001E111E10100057
:101FEC0000001A060202020000000E010E100F0083
:101FFC0004041F0404041800000011111119160028
:10200C0000001111110A04000000111115150A002D
:10201C000000110A040A1100000011111E100E001C
:10202C0000001F0804021F00180404020404180016
:10203C00040404040404040003040408040403005A
:10204C000215080000000000000000000000000065
:10205C000000000000000000000000000000000074
:10206C000000000000000000000000000000000064
:10207C000000000000000000000000000000000054
:10208C000000000000000000000000000000000044
:10245C0000800540040040050F000000008005408E
:10246C00100040050F0000000080054020004005D2
:10247C000F00000000000000000000000000000041
:10248C000000000000000000000000000000000040
:10249C000000000000000000000000000000000030
:1024AC000000000000000000000000000000000020
:1024BC000000000000000000000000000000000010
:1024CC000000000000000000000000000000000000
:1024DC0000000000000000000000000000000000F0
:1024EC0000000000000000000000000000000000E0
:1024FC0000000000000000000000000000000000D0
:10250C0000000000000000000000000000000000BF
:10251C0000000000000000000000000000000000AF
:0C252C00000000000000000003000000A0
:1025380095060000D90C0000B50C0000C10C000085
:10254800CD0C0000750400008D0400000505000096
:102558001D050000F9040000ED040000E10400007E
:10256800FFFFFFFFFFFFFFFFFFFFFFFFFFFFFFFF73
:10257800FFFFFFFFFFFFFFFFFFFFFFFFFFFFFFFF63
:10258800FFFFFFFFFFFFFFFFFFFFFFFFFFFFFFFF53
:1025980020204D696B726F20456C656B74726F6E8D
:0425A800696B6100FA
:0225AC0000002D
:0125AE00002C
:0C25B00040420F0000000000C7000000C7
:0425BC00FFFFFF7F9F
:0425C0000000000017
:0225C400020013
:0125C6000014
:0825C800390600003504000093
:00000001FF
