:02000004000BEF
:10000000FCFF00206D150B0015150B0015150B00DE
:1000100015150B0015150B0015150B0015150B000C
:1000200015150B0015150B0015150B0015150B00FC
:1000300015150B0015150B0015150B0015150B00EC
:1000400015150B0015150B0015150B0015150B00DC
:10156C00FFF7D6FF00F010F8FFF7E4FF00F028FDBE
:10157C0000F05AF800F0E4FCFFF7D8FEFFF78AFF02
:08158C00FFF702FFFCE7FEE798
:1014C40081B01CF8019B0BF8019BBBEB0A0FF8D110
:0414D40001B07047AC
:1014D80081B04FF000094FF0000CBDEB0A0F04DC9F
:1014E800BDEB0B0F01DBD446EA464BF8049BBBEB84
:1014F8000A0FFAD1BCEB0A0F05DDE246D9F800B0B5
:0A1508000BF1040BF1E701B070478E
:1013380081B0CDF800E0002200210020FFF7D8FEA0
:10134800002201210020FFF7D3FE00220221002005
:10135800FFF7CEFE002206210020FFF7C9FE0A484B
:1013680001460020FFF7C0FF46F6FE17C0F2180737
:1013780000BF00BF7F1EFDD100BF00BF00BFDDF86A
:0C13880000E001B0704700BF381F0B00F0
:1010F80081B0CDF800E05FFA81F95FFA82FA0FE07B
:101108005FFA8AF15FFA89F0FFF766FE0DE05FFA91
:101118008AF15FFA89F0FFF787FC06E0012004E016
:101128000028EDD00128F2D0F8E7DDF800E001B0A2
:021138007047FE
:100DE00081B0CDF800E0A9E0012905D140F2010170
:100DF0006548FFF749FD04E040F201016248FFF752
:100E00001DFDBBE0012905D140F220015F48FFF73D
:100E10003BFD04E040F220015C48FFF70FFDADE030
:100E2000012905D140F208015948FFF72DFD04E0E2
:100E300040F208015648FFF701FD9FE0012905D166
:100E400040F210015348FFF71FFD04E040F210018B
:100E50005048FFF7F3FC91E0012905D140F2400131
:100E60004C48FFF711FD04E040F240014948FFF70C
:100E7000E5FC83E0012905D140F210014448FFF769
:100E800003FD04E040F210014148FFF7D7FC75E094
:100E9000012905D140F210013F48FFF7F5FC04E0BD
:100EA00040F210013C48FFF7C9FC67E0012905D179
:100EB00040F201013748FFF7E7FC04E040F201018E
:100EC0003448FFF7BBFC59E0012905D140F220016D
:100ED0003248FFF7D9FC04E040F220012F48FFF729
:100EE000ADFC4BE0012905D140F210012B48FFF782
:100EF000CBFC04E040F210012848FFF79FFC3DE0E6
:100F0000012905D140F201012548FFF7BDFC04E0AD
:100F100040F201012248FFF791FC2FE0012905D1A1
:100F200040F280011A48FFF7AFFC04E040F2800174
:100F30001748FFF783FC21E0012020E000283FF460
:100F400053AF01283FF45EAF02283FF469AF032896
:100F50003FF474AF04283FF47FAF05283FF48AAF15
:100F600006283FF495AF0728A0D00828ACD0092860
:100F7000B8D00A28C4D00B28D0D0DDE70020DDF897
:100F800000E001B0704700BF001208408010084028
:100F9000001008406010084060110840001108402F
:040FA00020100840D5
:1008880081B0CDF800E0044AC9B2FFF7EDFEDDF80B
:0C08980000E001B0704700BF0004100039
:1006700081B01446314B984203D8314B984200D395
:1006800000E058E02E4BC31A03F01F0303B152E001
:10069000064600F5A0624FF6FF7304EA030318460E
:1006A000284B04EA03031B0C40F20008CFB20146BA
:1006B0001846B8F1080F3ED201231BB203FA08F323
:1006C0001BB21CB207EA0403A34231D101F4405328
:1006D0008BB14FEA8803F5182C686FF4405304EA95
:1006E00003032B604FEA8803F51801F440542B688C
:1006F00023432B601CE04FEA8803F5182C68114B4C
:1007000004EA03032B604FEA8803F41823680B43C1
:1007100023604FEA8803D5182C686FF0FF0304EAC2
:1007200003032B604FEA8803D41823680343236034
:1007300008F10108BDE701B0704700BFC0120840D2
:08074000001008400000FFFF5B
:10083C0081B0CDF800E0044AC9B2FFF713FFDDF830
:0C084C0000E001B0704700BF0006200073
:100A300081B0CDF800E0A9E0012905D140F2020122
:100A40006548FFF721FF04E040F202016248FFF72A
:100A5000F5FEBBE0012905D140F220015F48FFF718
:100A600013FF04E040F220015C48FFF7E7FEADE031
:100A7000012905D140F208015948FFF705FF04E0BC
:100A800040F208015648FFF7D9FE9FE0012905D141
:100A900040F210015348FFF7F7FE04E040F2100166
:100AA0005048FFF7CBFE91E0012905D140F240010B
:100AB0004C48FFF7E9FE04E040F240014948FFF7E7
:100AC000BDFE83E0012905D140F210014448FFF743
:100AD000DBFE04E040F210014148FFF7AFFE75E095
:100AE000012905D140F204013D48FFF7CDFE04E0A5
:100AF00040F204013A48FFF7A1FE67E0012905D161
:100B000040F204013848FFF7BFFE04E040F2040160
:100B10003548FFF793FE59E0012905D140F2200145
:100B20003248FFF7B1FE04E040F220012F48FFF702
:100B300085FE4BE0012905D140F210012B48FFF75B
:100B4000A3FE04E040F210012848FFF777FE3DE0E5
:100B5000012905D140F201012548FFF795FE04E087
:100B600040F201012248FFF769FE2FE0012905D17B
:100B700040F280011A48FFF787FE04E040F280014E
:100B80001748FFF75BFE21E0012020E000283FF43A
:100B900053AF01283FF45EAF02283FF469AF03284A
:100BA0003FF474AF04283FF47FAF05283FF48AAFC9
:100BB00006283FF495AF0728A0D00828ACD0092814
:100BC000B8D00A28C4D00B28D0D0DDE70020DDF84B
:100BD00000E001B0704700BF0012084080100840DC
:100BE0000010084060100840201108400011084023
:040BF0002010084089
:1012F00081B0CDF800E009E00846FFF76DFB0AE099
:101300000846FFF759FD06E0012004E00028F3D06D
:0E1310000128F5D0F8E7DDF800E001B07047E5
:1009D80081B0CDF800E000F208010B68011D0A683B
:1009E8000168084691B2DAB2FFF732FF0020DDF85D
:0609F80000E001B07047B1
:1008580081B0CDF800E0064C064B1C60064C074BF7
:100868001C60FFF76DFFDDF800E001B0704700BFC6
:1008780015040B005C010020FD050B006001002041
:1007480082B0CDF800E08346D0B21FFA81FC8DF864
:1007580004002348FFF764FE9DF80400214B1B6842
:1007680043EA00041F4B1C601E4B1868BCF1000FC5
:1007780008D01D4B1B6843F001041B4B1C601A4B2F
:10078800186805E0184B1B6803F0FE04164B1C6044
:100798001648B0FBFBF080280BD2002809D9114B72
:1007A8001B6803F0EF040F4B1C604408104B1C60DF
:1007B8000CE0104BB3FBFBF00A4B1B6843F0100432
:1007C800084B1C6043081846094B18600A4B1B6805
:1007D80043F00104084B1C60DDF800E002B07047EC
:1007E800581E0B001494004004940040006CDC0276
:0C07F8001894004080841E000094004013
:1004280081B0CDF800E040F2000A81464FEA8A0127
:1004380009EB01010968B1F1FF3F12D009F134015C
:100448004FEA8A03C91809680A4609EB03010968D3
:1004580008461146FFF7A2FF0AF1010A1FFA8AFAB5
:0A046800E4E7DDF800E001B07047A2
:1003A40082B0CDF800E000F0FF02130902F00F0262
:1003B4001446D8B2FFF778FF012212B2A240ADF87A
:1003C400042000460A469DF8041000F04FF9DDF8B9
:0603D40000E002B07047DA
:1002AC0081B027E028484DE028484BE0284849E039
:1002BC00284847E0284845E0284843E0284841E0E2
:1002CC0028483FE028483DE028483BE0284839E0F2
:1002DC00284837E0284835E0284833E0284831E002
:1002EC0028482FE028482DE028482BE0284829E012
:1002FC00284827E00028D5D00128D5D00228D5D011
:10030C000328D5D00428D5D00528D5D00628D5D09B
:10031C000728D5D00828D5D00928D5D00A28D5D07B
:10032C000B28D5D00C28D5D00D28D5D00E28D5D05B
:10033C000F28D5D01028D5D01128D5D01228D5D03B
:10034C001328D5D001B07047001008402010084089
:10035C00401008406010084080100840A010084071
:10036C00C0100840E010084000110840201108405F
:10037C00401108406011084080110840A01108404D
:10038C00C0110840E011084000120840201208403B
:08039C00401208406012084005
:100DB80081B0CDF800E000F208010B68011D0A6857
:100DC8000168084691B2DAB2FFF742FD0020DDF86B
:060DD80000E001B07047CD
:1014A00081B0CDF800E005490548FFF775FEFFF76C
:1014B00081FEDDF800E001B0704700BF441F0B0063
:0414C000C01E0B003F
:1011980081B0CDF800E003460846FFF7BBFD1846CE
:0C11A800FFF7C4FDDDF800E001B0704767
:100D1C00026803490A60011D0A6802490A607047AB
:080D2C001C000020580100200A
:100D3400026808490A6000F208010A6806490A6064
:100D4400011D0A6805490A6000F218010A6804498D
:100D54000A6070472400002018000020540100207D
:040D6400500100201A
:1011B40081B0CDF800E00E2200210348FFF71EFCA9
:0C11C400DDF800E001B0704740010020A1
:100A000093B20246C8B299B28CB24B1E99B214B1DD
:080A10001070521CF8E770475A
:1013940083B0CDF800E001208DF809003E48FFF746
:1013A40015FF0120FFF792FF9DF8090088B1FFF7B0
:1013B40059FE8DF80900FFF747FE43F67E67C0F239
:1013C400000700BF00BF7F1EFDD100BF00BF00BFEC
:1013D400EAE7FFF741FEFFF7EBFE00208DF8080077
:1013E4009DF808000B2824D2FFF7E2FE9DF80800C0
:1013F400FFF7D6FD0022D1B21E2914D28DF80410B5
:10140400FFF730FE9DF8041043F67E67C0F2000734
:1014140000BF00BF7F1EFDD100BF00BF00BF481C3E
:10142400C2B2D1B2E8E79DF80800401C8DF808006C
:10143400D6E7FFF7BDFE03210220FFF77DFE08215A
:101444000220FFF779FE03210620FFF775FE08212D
:101454000620FFF771FE00208DF808009DF80800B3
:10146400B0F1FF0F12D2FFF7FDFD43F67E67C0F225
:10147400000700BF00BF7F1EFDD100BF00BF00BF3B
:101484009DF80800401C8DF80800E7E7FFF790FE80
:0C149400DDF800E003B07047000000200D
:1011D00082B0CDF800E00546FFF71EFC38490870E4
:1011E000C1B2282902D9282235490A7040F21812C2
:1011F00000213448FFF704FC002000B22B463049A0
:10120000097888423EDA1978CA0012B22E498D1840
:101210005C1C022212B290FBF2F102FB110109B236
:1012200099B900231BB2072B0DDA282101FB03F229
:1012300024498A18411C09B25218297811706D1C72
:101240005B1C1BB2EFE7234619E0002109B203B291
:1012500020460CB2072C0DDA282101FB04F21949B3
:101260008A18591E09B25218297811706D1C641C15
:1012700024B2EFE7ADF804300346BDF90400401C8A
:1012800000B2BCE7002000B2072815DA002424B21F
:10129000022C0EDA42000D4989180B19282101FB96
:1012A00000F208498918091909781970641C24B2D8
:1012B000EEE7401C00B2E7E7DDF800E002B070475F
:1012C000170000202800002058160B0040010020C5
:100A1800014640F200000A46117819B1521C401CE8
:060A280080B2F9E77047FF
:1012D000012204490A7004490870002203490A8067
:1012E000704700BF220000202300002020000020C3
:1010680081B0CDF800E01E480078002830D01DE09F
:101078001C480088072804D9FFF7B8FD0021194843
:1010880001801FE017480088052804D9FFF7AEFD46
:1010980000211448018015E012480088012804D96D
:1010A800FFF7A4FD00210F4801800BE00E480078EF
:1010B8000028DDD00C4800780128E3D00A480078E1
:1010C8000228E9D00948FFF74BFE0548007803E0FD
:1010D8000648FFF745FE0120DDF800E001B0704743
:1010E80022000020200000202300002040010020D2
:100BF40081B0002424B2072C4DDA01252DB2B5F1C1
:100C0400FF3F45DD61003E4840184119087840081F
:100C14000870012D09D1610039484018007800F0AE
:100C24000100C0B20001C2B228E03648007800F0EA
:100C34000100C0B228B933480078C01CADF80000E8
:100C440004E030480078401CADF80000282000FB88
:100C540004F12D484118BDF90000081802782B4B07
:100C64001988012000B2884000B20240184600886A
:100C7400C0F1040189B2D0B28840C2B261002048F8
:100C8400401841190878104308706D1E2DB2B6E75C
:100C9400641C24B2AFE71D490888401C80B2088058
:100CA40004282BD9002119480180164A1078411CC8
:100CB400C9B211701648007881421FD900231BB2B3
:100CC400072B15DA002424B2022C0EDA59000C4842
:100CD40040180219282000FB03F10B4840180019A2
:100CE40000781070641C24B2EEE75B1C1BB2E7E7CB
:100CF40000210448017000210648017001B07047CA
:100D040040010020160000202800002014000020CC
:080D140017000020220000205E
:100D680083B0CDF800E00290FFF716FEFFF7DAFD3A
:100D7800002109B2ADF80410BDF90410072913DAEF
:100D8800BDF904104A0012B20299891808460221D6
:100D9800FFF7E4FDFFF782FDFFF7A8FDBDF904109A
:100DA800491CADF80410E7E7DDF800E003B0704730
:1009A00081B0CDF800E000200A4C2468A04740F256
:1009B0000E07C0F2000700BF00BF7F1EFDD100BFC1
:1009C00000BF00BF0120034C2468A047DDF800E011
:0809D00001B070475401002042
:1008040082B0CDF800E08DF80400FFF73DFE084902
:10081400097801F02001C9B201B9F8E79DF8041084
:1008240001F0FF0203490A70DDF800E002B07047EE
:0808340005240F4000240F40D1
:10048C0081B00448007800F07F010248017001B08F
:08049C00704700BF03240F406C
:1005140082B0CDF800E08DF80400FFF7A9FF084988
:10052400097801F02001C9B201B9F8E79DF8041077
:1005340001F0FF0203490A70DDF800E002B07047E1
:0805440005280F4000280F40BC
:1004740081B00448007800F07F010248017001B0A7
:08048400704700BF03280F4080
:10050400024A117860F3000111707047901308409B
:1004F400024A117860F34511117070478413084063
:10054C00024A117860F3C3011170704780130840A0
:10057C00024A117860F3041111707047831308401C
:10056C00024A117860F386111170704783130840AA
:10055C00024A117860F3041111707047801308403F
:1004B400024A117860F30411117070478B130840DD
:1004A400024A117860F30001117070478313084009
:1004E400024A117860F3451111707047881308406F
:1004C400024A117860F304111170704788130840D0
:1004D400024A117860F300011170704781130840DB
:10062000024A117860F3C7111170704780130840B7
:10061000024A117860F3410111707047901308404D
:10063000024A117860F3C7111170704784130840A3
:10066000024A117860F34511117070478E130840EB
:10065000024A117860F30411117070478313084047
:10064000024A117860F386111170704783130840D5
:1005AC00024A117860F304111170704780130840EF
:10059C00024A117860F38201117070478013084091
:10058C00024A117860F38201117070478913084098
:1005BC00024A117860F34511117070478813084096
:1005EC00024A117860F304111170704788130840A7
:1005DC00024A117860F300011170704781130840D2
:1005CC00024A117860F3C71111707047801308400C
:10092C0081B0CDF800E001200A4C2468A04740F2C9
:10093C000E07C0F2000700BF00BF7F1EFDD100BF35
:10094C0000BF00BF0020034C2468A047DDF800E086
:08095C0001B0704750010020BA
:1009640083B0CDF800E08AB2014690B283B2421E51
:1009740090B26BB10A78D4B2ADF804000291A0B27F
:10098400054C2468A0470299BDF80400491CEDE712
:0C099400DDF800E003B070471C000020FC
:1005FC0081B0CDF800E0FFF707FFDDF800E001B0B7
:02060C00704735
:1004140081B0CDF800E0FFF7DFFFDDF800E001B0C8
:0204240070471F
:1003DC0081B00A49096801F004010849096801F073
:1003EC000201074908600549096801F0020101B9D9
:1003FC00F9E70449086801B0704700BF0894004051
:08040C000C9400401094004024
:1008A40081B0CDF800E00020104C2468A04740F24D
:1008B4000E07C0F2000700BF00BF7F1EFDD100BFBE
:1008C40000BF00BF0120094C2468A04743F67E679F
:1008D400C0F2000700BF00BF7F1EFDD100BF00BFF4
:1008E40000BFDDF800E001B0704700BF1800002031
:1008F40081B0CDF800E001200A4C2468A04740F202
:100904000E07C0F2000700BF00BF7F1EFDD100BF6D
:1009140000BF00BF0020034C2468A047DDF800E0BE
:0809240001B07047240000201F
:10104C0002480088411C01480180704720000020A4
:0C105C00002101480170704722000020B4
:100FA400632800D94BE00A2814D200F2300109B2B8
:100FB400CA0012B222498B18002000B2072808DAAE
:100FC400420020498A18197811705B1C401C00B239
:100FD400F4E734E00A21B0FBF1F1C9B2CAB202F27B
:100FE400300109B2CA0012B215498C1800231BB291
:100FF400072B09DA5A00134989184A1C2178117001
:10100400641C5B1C1BB2F3E70A22B0FBF2F102FB87
:101014001101C9B2C8B200F2300109B2CA0012B259
:1010240007498B18002000B2072808DA4200054956
:101034008A18197811705B1C401C00B2F4E77047E1
:0810440058160B0040010020CA
:10113C00072805D80A2903D810B1002900D000E0EF
:10114C0021E0062910D2421E12B253000E4AD218C8
:10115C00541C4B1E1BB2012212B202FA03F31BB237
:10116C0022781A4322700EE0421E12B25300064A35
:10117C00D4188B1F1BB2012212B202FA03F31BB25A
:0C118C0022781A432270704740010020B6
:1015940081B0CDF800E01F4B1F4A204C2048006862
:1015A40040F002011E480160012A08D0032A06D037
:1015B400042A04D0102A02D0302A00D002E01948AC
:1015C400026002E0012117480160C4F3C002164919
:1015D400086862F3C3000860C4F380021249086813
:1015E40062F382000860C4F340020F49086862F3A2
:1015F40041000860C4F300020B49086862F300006C
:101604000860FFF78BFE09480360DDF800E001B0D5
:10161400704700BFE001000001000000000000006E
:1016240008E000E00401084008A400400801084064
:1013200046F6FE17C0F2180700BF00BF7F1EFDD1B2
:0813300000BF00BF00BF7047C1
:1016340081B004490448016004490548016001B0CF
:10164400704700BF80BB0000640100200000000060
:041654006801002009
:0815140081B0FEE701B0704751
:1015400081B04EF68850CEF20000016841F470017F
:10155000016000BF00BF00BF00BFF1EE100A40F401
:0A1560004000E1EE100A01B07047F0
:10151C0081B0DFF81000DFF810100860D0F800D0B0
:10152C0000F004B800000B0008ED00E000BF01B0B3
:02153C007047F6
:101F4C0000B5DFF814B0DFF814A0DFF814C0FFF709
:101F5C00B3FA00BD704700BF00000020170000203E
:041F6C00201F0B0027
:101FCC0000B5DFF810B0DFF810A0FFF77FFA00BD06
:0C1FDC00704700BF000000206C010020D6
:101658000000000000000000000000000000000082
:101668000000000000000000000000000000000072
:101678000000000000000000000000000000000062
:101688000000000000000000000000000000000052
:101698000000000000000000000000000000000042
:1016A8000000000000000000000000000000000032
:1016B8000000000000000000000000000000000022
:1016C8000000000000000000000000000000000012
:1016D8000000000000000000000000000000000002
:1016E80000000000000000000000000000000000F2
:1016F80000000000000000000000000000000000E2
:1017080000000000000000000000000000000000D1
:1017180000000000000000000000000000000000C1
:1017280000000000000000000000000000000000B1
:1017380000000000000000000000000000000000A1
:101748000000000000000000000000000000000091
:10175800000000000000000004040404000004006D
:101768000A0A0A00000000000A0A1F0A1F0A0A00E3
:10177800041E050E140F04000313080402191800B0
:1017880006090502150916000604020000000000FB
:1017980008040202020408000204080808040200FF
:1017A8000004150E150400000004041F04040000C2
:1017B80000000000060402000000001F00000000F6
:1017C80000000000000606000010080402010000E6
:1017D8000E11191513110E000406040404040E005A
:1017E8000E11100804021F001F08040810110E0033
:1017F800080C0A091F0808001F010F1010110E001D
:101808000C02010F11110E001F1008040202020041
:101818000E11110E11110E000E11111E10080600E6
:101828000006060006060000000606000604020080
:10183800080402010204080000001F001F00000045
:1018480002040810080402000E1110080400040025
:101858000E11101615150E000E1111111F11110081
:101868000F11110F11110F000E11010101110E00BE
:1018780007091111110907001F01010F01011F00BC
:101888001F01010F010101000E11011D11111E00A0
:101898001111111F111111000E04040404040E008B
:1018A8001C080808080906001109050305091100A4
:1018B8000101010101011F00111B15151111110072
:1018C80011111315191111000E11111111110E001A
:1018D8000F11110F010101000E1111111509160048
:1018E8000F11110F050911001E01010E10100F0034
:1018F8001F040404040404001111111111110E0035
:1019080011111111110A04001111111515150A00F0
:1019180011110A040A1111001111110A040404001A
:101928001F10080402011F000E02020202020E002C
:1019380000010204081000000E08080808080E003C
:10194800040A1100000000000000000000001F0051
:101958000C0408000000000000000E101E111E00FC
:1019680001010F1111110F0000001E0101011E00DD
:1019780010101E1111111E0000000E111F010E0083
:1019880018041F040404040000001E111E100E0099
:1019980001010D13111111000400060404040E00C6
:1019A80008000C08080906000202120A060A1200BA
:1019B8000604040404040E0000000B151515150098
:1019C80000000D131111110000000E1111110E006D
:1019D80000000F110F01010000001E111E10100061
:1019E80000001A060202020000000E010E100F008D
:1019F80004041F0404041800000011111119160032
:101A080000001111110A04000000111115150A0037
:101A18000000110A040A1100000011111E100E0026
:101A280000001F0804021F00180404020404180020
:101A38000404040404040400030404080404030064
:101A4800021508000000000000000000000000006F
:101A5800000000000000000000000000000000007E
:101A6800000000000000000000000000000000006E
:101A7800000000000000000000000000000000005E
:101A8800000000000000000000000000000000004E
:101E5800340000003600000004000000FFFFFFFF10
:101E6800000000000000000000000000000000006A
:101E7800000000000000000000000000000000005A
:101E880000000000002000000020000000200000EA
:101E9800000000000000000000000000000000003A
:101EA800000000000000000000000000000000002A
:081EB800000000000000000022
:101EC00005050B00F5040B004D050B007D050B000F
:101ED0006D050B005D050B00B5040B00A5040B00A0
:101EE000E5040B00C5040B00D5040B0021060B0014
:101EF000FFFFFFFFFFFFFFFFFFFFFFFFFFFFFFFFF2
:101F0000FFFFFFFFFFFFFFFFFFFFFFFFFFFFFFFFE1
:101F1000FFFFFFFFFFFFFFFFFFFFFFFFFFFFFFFFD1
:101F200020204D696B726F20456C656B74726F6E0B
:041F3000696B610078
:021F34000000AB
:011F360000AA
:0C1F380040420F00000000000400000008
:081F4400FD050B0015040B0064
:00000001FF
