:10000000FCFF0020CD170000411600004116000043
:100010004116000041160000411600004116000084
:100020004116000041160000411600004116000074
:100030004116000041160000411600004116000064
:100040004116000041160000411600004116000054
:100050004116000041160000411600004116000044
:100060004116000041160000411600004116000034
:100070004116000041160000411600004116000024
:100080004116000041160000411600004116000014
:100090004116000041160000411600004116000004
:1000A00041160000411600004116000041160000F4
:1000B00041160000411600004116000041160000E4
:1000C00041160000411600004116000041160000D4
:1000D00041160000411600004116000041160000C4
:1000E00041160000411600004116000041160000B4
:1000F00041160000411600004116000041160000A4
:1017CC00FFF75CFFFFF73AFF00F004FDFFF74CFF5B
:1017DC0000F0C0FCFFF73EFEFFF7F2FEFFF76AFEDB
:0417EC00FCE7FEE731
:1015F00081B01CF8019B0BF8019BBBEB0A0FF8D1E3
:0416000001B070477E
:1016040081B04FF000094FF0000CBDEB0A0F04DC71
:10161400BDEB0B0F01DBD446EA464BF8049BBBEB56
:101624000A0FFAD1BCEB0A0F05DDE246D9F800B087
:0A1634000BF1040BF1E701B0704761
:1014600081B0CDF800E0002200210020FFF726FE29
:10147000002201210020FFF721FE0022022100208E
:10148000FFF71CFE002206210020FFF717FE0A4886
:1014900001460020FFF7DEFE44F67D77C0F212071A
:1014A00000BF00BF7F1EFDD100BF00BF00BFDDF841
:0C14B00000E001B0704700BF2C210000DC
:1010BC0081B0CDF800E05FFA81F95FFA82FA0FE0B7
:1010CC005FFA8AF15FFA89F0FFF710FE0DE05FFA24
:1010DC008AF15FFA89F0FFF7F1FC06E0012004E0E9
:1010EC000028EDD00128F2D0F8E7DDF800E001B0DF
:0210FC0070473B
:100CF80081B0CDF800E0A9E0012905D140F2010159
:100D08006548FFF771FE04E040F201016348FFF710
:100D1800FFFDBBE0012905D140F240016048FFF723
:100D280063FE04E040F240015E48FFF7F1FDADE0EC
:100D3800012905D140F201015948FFF755FE04E0A9
:100D480040F201015748FFF7E3FD9FE0012905D173
:100D580040F220015448FFF747FE04E040F220012A
:100D68005248FFF7D5FD91E0012905D140F28001F5
:100D78004D48FFF739FE04E040F280014B48FFF789
:100D8800C7FD83E0012905D140F240014648FFF73D
:100D98002BFE04E040F240014448FFF7B9FD75E03E
:100DA800012905D140F280014148FFF71DFE04E00A
:100DB80040F280013F48FFF7ABFD67E0012905D10C
:100DC80040F210013A48FFF70FFE04E040F210012C
:100DD8003848FFF79DFD59E0012905D140F204018B
:100DE8003548FFF701FE04E040F204013348FFF7FD
:100DF8008FFD4BE0012905D140F208012E48FFF78D
:100E0800F3FD04E040F208012C48FFF781FD3DE0C6
:100E1800012905D140F220011F48FFF7E5FD04E054
:100E280040F220011D48FFF773FD2FE0012905D18D
:100E380040F210011848FFF7D7FD04E040F2100116
:100E48001648FFF765FD21E0012020E000283FF467
:100E580053AF01283FF45EAF02283FF469AF03287F
:100E68003FF474AF04283FF47FAF05283FF48AAFFE
:100E780006283FF495AF0728A0D00828ACD0092849
:100E8800B8D00A28C4D00B28D0D0DDE70020DDF880
:100E980000E001B0704700BF414C0040434C0040A7
:100EA800404C0040424C0040004C0040024C004086
:100EB800014C0040034C0040204C0040224C0040B4
:1009F00081B0CDF800E0002424B240F240031BB2E5
:100A000040F2040212B242EA03031BB240F20102B6
:100A100012B243EA020293B2002210B4FFF758FD6B
:0A0A200001B0DDF800E001B07047FE
:1004D00083B0CDF800E08DB20146D0B2BDF90C205A
:1004E00001F0010414B12F02BFB200E0AFB28F4C93
:1004F0000C1B640965018D4C6419A0468C4CA0420C
:1005000007D108F10406FD43ADB234882C40348095
:1005100007E0884CA04204D108F104052C883C4334
:100520002C8040F2010403EA0404A4B23CB108F1B7
:100530000606FD43ADB234882C4034800AE040F218
:10054000020403EA0404A4B224B108F106052C88CD
:100550003C432C8040F2040403EA0404A4B23CB1FE
:1005600008F10806FD43ADB234882C4034800AE01F
:1005700040F2080403EA0404A4B224B108F1080517
:100580002C883C432C8040F2100403EA0404A4B2FB
:100590003CB108F11806FD43ADB234882C403480DC
:1005A0000AE040F2200403EA0404A4B224B108F1F2
:1005B00018052C883C432C8040F2400403EA0404D4
:1005C000A4B23CB108F11A06FD43ADB234882C4008
:1005D00034800AE040F2800403EA0404A4B224B1A7
:1005E00008F11A052C883C432C8003F48074A4B2D3
:1005F0007CB908F10A06FD43ADB234882C40348042
:1006000008F10C06FD43ADB234882C403480002044
:1006100087E01F2A01DD012083E0FFF795FD002020
:10062000B9B2C7B24046102F80F07A8021FA07F4A1
:10063000A4B204F00104A4B2002C00F06E8000F219
:100640000A06CD43ADB234882C40348000F20C064B
:10065000CD43ADB234882C40348003F48064A4B21E
:100660002CB1ADF806100024ADF808400DE003F4FD
:100670000064A4B22CB10024ADF80640ADF8081017
:1006800003E0ADF80610ADF8081000F20A06358850
:10069000BDF8064045EA0404348000F20C063588B3
:1006A000BDF8084045EA04043480234C041B640967
:1006B000ADF80440214CA24218D0BDF80440E4003B
:1006C000A4B265001E4C65197C08E4B264002E19C2
:1006D00007F00104E4B2E5002DB240F2FF04AC40A3
:1006E000A4B2E543ADB234882C403480BDF8044058
:1006F000E400A4B26500124C65197C08E4B2640001
:100700002E1907F00104E4B2E5002DB294B204FA08
:1007100005F5ADB234882C4334807F1CFFB282E7EC
:100720000020DDF800E003B0704700BF004C00403F
:100730000000000001000000004C0040000000002C
:04074000085000401D
:1001480081B042F6525103480180022102480180E1
:0C01580001B07047005000400250004011
:1009180081B0CDF800E0002424B240F240031BB2BD
:1009280040F2040212B242EA03031BB240F201028F
:1009380012B243EA020293B2012210B4FFF7C4FDD7
:0A09480001B0DDF800E001B07047D7
:100AC80081B0CDF800E0A9E0012905D140F2080184
:100AD8006548FFF789FF04E040F208016348FFF723
:100AE80017FFBBE0012905D140F280016048FFF7FC
:100AF8007BFF04E040F280015E48FFF709FFADE0AC
:100B0800012905D140F204015B48FFF76DFF04E0BD
:100B180040F204015948FFF7FBFE9FE0012905D187
:100B280040F220015648FFF75FFF04E040F2200141
:100B38005448FFF7EDFE91E0012905D140F280010C
:100B48004F48FFF751FF04E040F280014D48FFF79E
:100B5800DFFE83E0012905D140F240014848FFF754
:100B680043FF04E040F240014648FFF7D1FE75E03C
:100B7800012905D140F240014348FFF735FF04E061
:100B880040F240014148FFF7C3FE67E0012905D163
:100B980040F240013648FFF727FF04E040F24001E9
:100BA8003448FFF7B5FE59E0012905D140F20401A8
:100BB8003548FFF719FF04E040F204013348FFF716
:100BC800A7FE4BE0012905D140F208012E48FFF7A6
:100BD8000BFF04E040F208012C48FFF799FE3DE0C6
:100BE800012905D140F220012148FFF7FDFE04E06C
:100BF80040F220011F48FFF78BFE2FE0012905D1A5
:100C080040F210011A48FFF7EFFE04E040F210012D
:100C18001848FFF77DFE21E0012020E000283FF47E
:100C280053AF01283FF45EAF02283FF469AF0328B1
:100C38003FF474AF04283FF47FAF05283FF48AAF30
:100C480006283FF495AF0728A0D00828ACD009287B
:100C5800B8D00A28C4D00B28D0D0DDE70020DDF8B2
:100C680000E001B0704700BF214C0040234C004019
:100C7800414C0040434C0040404C0040424C004036
:100C8800004C0040024C0040014C0040034C004026
:1012540081B0CDF800E009E00846FFF71BFD0AE085
:101264000846FFF7FFFB06E0012004E00028F3D066
:0E1274000128F5D0F8E7DDF800E001B0704782
:100C980081B0CDF800E0DFF8549000F218010B683D
:100CA80000F214010A6800F21001D1F8008000F285
:100CB8000C010F6800F208010E68011D0D68046838
:100CC8001BB212B20FFA88F14DF8049D08B404B4AF
:100CD80002B43BB232B229B220B2FFF7B9FD04B078
:100CE8000020DDF800E001B0704700BFF01F0000F1
:1008580084B0CDF800E00FFA80FCADF80410ADF8D4
:100868000820ADF80C30BDF91040ADF81040BDF9C6
:100878001440ADF81440BDF91840ADF81840079C75
:100888002046FFF75BFF0F4D0F4C25600F4D104CB6
:100898002560BDF91860BDF91450BDF91040BDF9C7
:1008A8000C30BDF90820BDF904100FFA8CF040B4E3
:1008B80020B410B4FFF7CCFD03B0DDF800E004B0BD
:1008C800704700BFFFFFFFFF5C0100200D03000021
:0408D800600100209B
:1007440081B0CDF800E040F2000A814609F1D801F9
:1007540009788A453AD20C210AFB01F109EB01011F
:100764008B460BF1080109781F2915D10BF10801FB
:100774000978CCB20BF1060109888BB20BF10401A4
:1007840009888AB2DBF80010084691B2002210B43E
:10079400FFF79CFE01B014E00BF108010978CCB21C
:1007A4000BF1060109888BB20BF1040109888AB2A6
:1007B400DBF80010084691B2FF2210B4FFF786FE62
:1007C40001B00AF1010A5FFA8AFABFE7DDF800E036
:0407D40001B07047B9
:1004580081B0BDF90460BDF90870BDF90C80184C75
:10046800258841F23F042540154C2580144C2488EA
:1004780044F00105124C258040EA030424B23443B9
:1004880024B23C4324B244EA080424B244F48075FC
:100498002DB20B4C248844EA0505094C2580084CEC
:1004A800248844EA0205064C2580064C2180044C29
:1004B80025884FF6FE742540014C258001B0704711
:0804C800002000400620004066
:100A680081B0CDF800E0DFF8549000F218010B686F
:100A780000F214010A6800F21001D1F8008000F2B7
:100A88000C010F6800F208010E68011D0D6804686A
:100A98001BB212B20FFA88F14DF8049D08B404B4E1
:100AA80002B43BB232B229B220B2FFF7D1FE04B091
:100AB8000020DDF800E001B0704700BFF01F000023
:1015CC0081B0CDF800E005490548FFF763FEFFF751
:1015DC0053FEDDF800E001B0704700BF14080000B6
:0415EC00CC2000000F
:1012A00081B0CDF800E003460846FFF7FBFE184684
:0C12B000FFF70AFEDDF800E001B0704717
:1010A400026803490A60011D0A6802490A60704720
:0810B400280000205801002073
:100EC800026808490A6000F208010A6806490A60CF
:100ED800011D0A6805490A6000F218010A680449F8
:100EE8000A607047300000203400002054010020C0
:040EF8002C000020AA
:1012840081B0CDF800E00E2200210348FFF734FEC0
:0C129400DDF800E001B070471A000020F7
:100EFC0093B20246C8B299B28CB24B1E99B214B1DD
:080F0C001070521CF8E7704759
:1014C00083B0CDF800E001208DF809003E48FFF719
:1014D00005FF0120FFF7F2FE9DF8090088B1FFF734
:1014E0000FFE8DF80900FFF753FE42F6DD67C0F2EC
:1014F000000700BF7F1EFDD100BF00BF00BF00BFBF
:10150000EAE7FFF74DFEFFF7BDFE00208DF808006B
:101510009DF808000B2824D2FFF7B4FE9DF80800C0
:10152000FFF744FE0022D1B21E2914D28DF8041018
:10153000FFF7E6FD9DF8041042F6DD67C0F20007F4
:1015400000BF00BF7F1EFDD100BF00BF00BF481C11
:10155000C2B2D1B2E8E79DF80800401C8DF808003F
:10156000D6E7FFF78FFE03210220FFF737FF0821A0
:101570000220FFF733FF03210620FFF72FFF08218A
:101580000620FFF72BFF00208DF808009DF80800CB
:10159000B0F1FF0F12D2FFF7B3FD42F6DD67C0F2E4
:1015A000000700BF7F1EFDD100BF00BF00BF00BF0E
:1015B0009DF80800401C8DF80800E7E7FFF762FE81
:0C15C000DDF800E003B0704700000020E0
:1012DC0082B0CDF800E00546FFF716FE38490870DD
:1012EC00C1B2282902D9282235490A7040F21812B5
:1012FC0000213448FFF7FCFD002000B22B4630499A
:10130C00097888423EDA1978CA0012B22E498D1833
:10131C005C1C022212B290FBF2F102FB110109B229
:10132C0099B900231BB2072B0DDA282101FB03F21C
:10133C0024498A18411C09B25218297811706D1C65
:10134C005B1C1BB2EFE7234619E0002109B203B284
:10135C0020460CB2072C0DDA282101FB04F21949A6
:10136C008A18591E09B25218297811706D1C641C08
:10137C0024B2EFE7ADF804300346BDF90400401C7D
:10138C0000B2BCE7002000B2072815DA002424B212
:10139C00022C0EDA42000D4989180B19282101FB89
:1013AC0000F208498918091909781970641C24B2CB
:1013BC00EEE7401C00B2E7E7DDF800E002B0704752
:1013CC003800002039000020F01700001A0000201F
:100F1400014640F200000A46117819B1521C401CE7
:060F240080B2F9E77047FE
:1012BC00012204490A7004490870002203490A807B
:1012CC00704700BF170000205101002018000020BB
:1011000081B0CDF800E01E480078002830D01DE006
:101110001C480088072804D9FFF730FF0021194830
:1011200001801FE017480088052804D9FFF726FF33
:1011300000211448018015E012480088012804D9D4
:10114000FFF71CFF00210F4801800BE00E480078DC
:101150000028DDD00C4800780128E3D00A48007848
:101160000228E9D00948FFF7E1FE0548007803E0CE
:101170000648FFF7DBFE0120DDF800E001B0704714
:101180001700002018000020510100201A00002044
:100F7C0081B0002424B2072C4DDA01252DB2B5F135
:100F8C00FF3F45DD61003E48401841190878400894
:100F9C000870012D09D1610039484018007800F023
:100FAC000100C0B20001C2B228E03648007800F05F
:100FBC000100C0B228B933480078C01CADF800005D
:100FCC0004E030480078401CADF80000282000FBFD
:100FDC0004F12D484118BDF90000081802782B4B7C
:100FEC001988012000B2884000B2024018460088DF
:100FFC00C0F1040189B2D0B28840C2B2610020486D
:10100C00401841190878104308706D1E2DB2B6E7D0
:10101C00641C24B2AFE71D490888401C80B20880CC
:10102C0004282BD9002119480180164A1078411C3C
:10103C00C9B211701648007881421FD900231BB227
:10104C00072B15DA002424B2022C0EDA59000C48B6
:10105C0040180219282000FB03F10B484018001916
:10106C0000781070641C24B2EEE75B1C1BB2E7E73F
:10107C0000210448017000210648017001B070473E
:10108C001A00002016000020390000201400002057
:08109C003800002017000020BD
:100F2C0083B0CDF800E00290FFF77CFDFFF772FC78
:100F3C00002109B2ADF80410BDF90410072913DA29
:100F4C00BDF904104A0012B2029989180846022110
:100F5C00FFF7BEFCFFF71EFDFFF7FCFCBDF904100C
:100F6C00491CADF80410E7E7DDF800E003B070476A
:100A300081B0CDF800E000200A4C2468A04740F2C5
:100A40000907C0F2000700BF7F1EFDD100BF00BF35
:100A500000BF00BF0120034C2468A047DDF800E080
:080A600001B0704754010020B1
:0C04400001490870704700BF6088094245
:0C044C0001490870704700BF5888094241
:0C07FC0001490870704700BF40880942A6
:0C08080001490870704700BF548009428D
:0C07F00001490870704700BF5C8009429E
:0C07D80001490870704700BF58800942BA
:0C07E40001490870704700BF7C8009428A
:0C04340001490870704700BF7080094249
:0C02D00001490870704700BF48840942D3
:0C02C40001490870704700BF4C840942DB
:0C02B80001490870704700BF74880942BB
:0C02DC0001490870704700BF708809429B
:0C03000001490870704700BF6C8409427E
:0C02F40001490870704700BF7C88094277
:0C02E80001490870704700BF48880942B7
:0C02700001490870704700BF548009422B
:0C027C0001490870704700BF5C80094217
:0C02640001490870704700BF5880094233
:0C02A00001490870704700BF78800942D7
:0C02AC0001490870704700BF78880942C3
:0C02880001490870704700BF68800942FF
:0C02940001490870704700BF6C800942EF
:0C03C80001490870704700BF74880942AA
:0C03BC0001490870704700BF70880942BA
:1008200081B0CDF800E001200A4C2468A04740F2D6
:100830000907C0F2000700BF7F1EFDD100BF00BF47
:1008400000BF00BF0020034C2468A047DDF800E093
:0808500001B070472C000020EC
:1008DC0083B0CDF800E08AB2014690B283B2421EDA
:1008EC0090B26BB10A78D4B2ADF804000291A0B208
:1008FC00054C2468A0470299BDF80400491CEDE79B
:0C090C00DDF800E003B070472800002078
:1003A80081B0CDF800E0FFF7EBFEDDF800E001B02A
:0203B80070478C
:1001880081B00649098801B1FBE7054908800349A0
:10019800098801B1FBE701B0704700BF4001024286
:0401A8000E100040F5
:1004200081B0CDF800E0FFF7C1FEDDF800E001B0DB
:02043000704713
:1001AC0081B00649098801B1FBE70549088003497C
:1001BC00098801B1FBE701B0704700BF40810242E2
:0401CC000E140040CD
:1003F00081B0CDF800E0FFF7EBFEDDF800E001B0E2
:02040000704743
:1001D00081B00649098801B1FBE705490880034958
:1001E000098801B1FBE701B0704700BF400103423D
:0401F0000E180040A5
:1003200081B0CDF800E0FFF71DFFDDF800E001B07F
:02033000704714
:1001640081B00649098801B1FBE7054908800349C4
:10017400098801B1FBE701B0704700BF4081034229
:040184000E1C00400D
:10030C0081B0CDF800E0FFF7F5FEDDF800E001B0BC
:02031C00704728
:1001000081B00649098801B1FBE705490880034928
:10011000098801B1FBE701B0704700BF000104424C
:040120000E2000406D
:1003940081B0CDF800E0FFF7C3FEDDF800E001B066
:0203A4007047A0
:1001240081B00649098801B1FBE705490880034904
:10013400098801B1FBE701B0704700BF00810442A8
:040144000E24004045
:1003800081B0CDF800E0FFF735FFDDF800E001B007
:020390007047B4
:1001F40081B00649098801B1FBE705490880034934
:10020400098801B1FBE701B0704700BF0001054256
:040214000E28004070
:10036C0081B0CDF800E0FFF751FFDDF800E001B0FF
:02037C007047C8
:1002180081B00649098801B1FBE70549088003490F
:10022800098801B1FBE701B0704700BF00810542B2
:040238000E2C004048
:1003500081B0CDF800E081B20348FFF76FFFDDF810
:0C03600000E001B0704700BF001000403A
:10023C0081B0ADF800100146BDF8000001F20A02D1
:10024C00128802F0010292B202B1F7E701F20E023B
:06025C00108001B07047A4
:1003340081B0CDF800E081B20348FFF77DFFDDF81E
:0C03440000E001B0704700BF0014004052
:1004040081B0CDF800E081B20348FFF715FFDDF8B5
:0C04140000E001B0704700BF001800407D
:1003D40081B0CDF800E081B20348FFF72DFFDDF8CE
:0C03E40000E001B0704700BF001C0040AA
:1009A00081B0CDF800E00020104C2468A04740F250
:1009B0000907C0F2000700BF7F1EFDD100BF00BFC6
:1009C00000BF00BF0120094C2468A04742F6DD6744
:1009D000C0F2000700BF00BF7F1EFDD100BF00BFF7
:1009E00000BFDDF800E001B0704700BF3400002018
:1009600081B0CDF800E001200A4C2468A04740F295
:100970000907C0F2000700BF7F1EFDD100BF00BF06
:1009800000BF00BF0020034C2468A047DDF800E052
:0809900001B0704730000020A7
:1011900002480088411C0148018070471800002067
:0C11A0000021014801707047170000207A
:1011AC00632800D94BE00A2814D200F2300109B2AE
:1011BC00CA0012B222498B18002000B2072808DAA4
:1011CC00420020498A18197811705B1C401C00B22F
:1011DC00F4E734E00A21B0FBF1F1C9B2CAB202F271
:1011EC00300109B2CA0012B215498C1800231BB287
:1011FC00072B09DA5A00134989184A1C21781170F7
:10120C00641C5B1C1BB2F3E70A22B0FBF2F102FB7D
:10121C001101C9B2C8B200F2300109B2CA0012B24F
:10122C0007498B18002000B2072808DA420005494C
:10123C008A18197811705B1C401C00B2F4E77047D7
:08124C00F01700001A00002059
:1013DC00072805D80A2903D810B1002900D000E04D
:1013EC0021E0062910D2421E12B253000E4AD21826
:1013FC00541C4B1E1BB2012212B202FA03F31BB295
:10140C0022781A4322700EE0421E12B25300064A92
:10141C00D4188B1F1BB2012212B202FA03F31BB2B7
:0C142C0022781A43227070471A0000203A
:1016880083B0CDF800E0374B374C384D384E394FE2
:10169800394845F680213948018004F007000528BB
:1016A80004D004F07000502800D00BE0012252B2A0
:1016B80033480280002149B2324801803248028012
:1016C80032480180802132480160019502961E4609
:1016D80025463A46029B019C2E48006800F480701B
:1016E80000B1F9E72C492D480160019511463246B1
:1016F8001D46019B2748006800F4807000B1F9E797
:101708002748016027480160274928480160284880
:10171800026028480360200D00F0070028B944F053
:101728000301254801602A4610E044F4803040F067
:101738000301214801602A462048006830B1FFF7BC
:101748007BFE012149B21E480160F5E700211748D8
:10175800016042F4B44109480180DDF800E003B0BB
:10176800704700BF000005003300000003000100BF
:10177800840000000010000080BB00000C480040FE
:101788004CA509428CA5094248A5094288A50942E9
:10179800143004E00400014001005A6900000140CF
:1017A80010100140141001405A6900000004014063
:1017B80004040140080401400C040140048920424B
:0417C800048A20422D
:1014400040F20907C0F2000700BF00BF7F1EFDD1B8
:0814500000BF00BF00BF7047A0
:1016740081B002490248016001B0704780BB00009C
:0416840064010020DD
:0816400081B0FEE701B0704724
:1016480081B04EF68850CEF20000016841F4700176
:10165800016000BF00BF00BF00BFF1EE100A40F4F8
:0A1668004000E1EE100A01B07047E7
:1021600000B5DFF814B0DFF814A0DFF814C0FFF7F3
:102170003FFA00BD704700BF00000020170000209C
:0421800048210000F2
:1021E00000B5DFF810B0DFF810A0FFF70BFA00BD64
:0C21F000704700BF0000002068010020C4
:080814000D030000FFFFFFFFD0
:1017F00000000000000000000000000000000000E9
:1018000000000000000000000000000000000000D8
:1018100000000000000000000000000000000000C8
:1018200000000000000000000000000000000000B8
:1018300000000000000000000000000000000000A8
:101840000000000000000000000000000000000098
:101850000000000000000000000000000000000088
:101860000000000000000000000000000000000078
:101870000000000000000000000000000000000068
:101880000000000000000000000000000000000058
:101890000000000000000000000000000000000048
:1018A0000000000000000000000000000000000038
:1018B0000000000000000000000000000000000028
:1018C0000000000000000000000000000000000018
:1018D0000000000000000000000000000000000008
:1018E00000000000000000000000000000000000F8
:1018F00000000000000000000404040400000400D4
:101900000A0A0A00000000000A0A1F0A1F0A0A0049
:10191000041E050E140F0400031308040219180016
:101920000609050215091600060402000000000061
:101930000804020202040800020408080804020065
:101940000004150E150400000004041F0404000028
:1019500000000000060402000000001F000000005C
:10196000000000000006060000100804020100004C
:101970000E11191513110E000406040404040E00C0
:101980000E11100804021F001F08040810110E0099
:10199000080C0A091F0808001F010F1010110E0083
:1019A0000C02010F11110E001F10080402020200A8
:1019B0000E11110E11110E000E11111E100806004D
:1019C00000060600060600000006060006040200E7
:1019D000080402010204080000001F001F000000AC
:1019E00002040810080402000E111008040004008C
:1019F0000E11101615150E000E1111111F111100E8
:101A00000F11110F11110F000E11010101110E0024
:101A100007091111110907001F01010F01011F0022
:101A20001F01010F010101000E11011D11111E0006
:101A30001111111F111111000E04040404040E00F1
:101A40001C0808080809060011090503050911000A
:101A50000101010101011F00111B151511111100D8
:101A600011111315191111000E11111111110E0080
:101A70000F11110F010101000E11111115091600AE
:101A80000F11110F050911001E01010E10100F009A
:101A90001F040404040404001111111111110E009B
:101AA00011111111110A04001111111515150A0057
:101AB00011110A040A1111001111110A0404040081
:101AC0001F10080402011F000E02020202020E0093
:101AD00000010204081000000E08080808080E00A3
:101AE000040A1100000000000000000000001F00B8
:101AF0000C0408000000000000000E101E111E0063
:101B000001010F1111110F0000001E0101011E0043
:101B100010101E1111111E0000000E111F010E00E9
:101B200018041F040404040000001E111E100E00FF
:101B300001010D13111111000400060404040E002C
:101B400008000C08080906000202120A060A120020
:101B50000604040404040E0000000B1515151500FE
:101B600000000D131111110000000E1111110E00D3
:101B700000000F110F01010000001E111E101000C7
:101B800000001A060202020000000E010E100F00F3
:101B900004041F0404041800000011111119160098
:101BA00000001111110A04000000111115150A009E
:101BB0000000110A040A1100000011111E100E008D
:101BC00000001F0804021F00180404020404180087
:101BD00004040404040404000304040804040300CB
:101BE00002150800000000000000000000000000D6
:101BF00000000000000000000000000000000000E5
:101C000000000000000000000000000000000000D4
:101C100000000000000000000000000000000000C4
:101C200000000000000000000000000000000000B4
:101FF000004C00402000050500000000004C00409F
:102000008000050500000000004C00404000050570
:1020100000000000000000000000000000000000C0
:1020200000000000000000000000000000000000B0
:1020300000000000000000000000000000000000A0
:102040000000000000000000000000000000000090
:102050000000000000000000000000000000000080
:102060000000000000000000000000000000000070
:102070000000000000000000000000000000000060
:102080000000000000000000000000000000000050
:102090000000000000000000000000000000000040
:1020A0000000000000000000000000000000000030
:1020B0000000000000000000000000000000000020
:0C20C00000000000000000000300000011
:1020CC00410400004D040000FD0700000908000059
:1020DC00F1070000D9070000E507000035040000F7
:1020EC00D1020000C5020000B9020000DD020000B0
:1020FC00FFFFFFFFFFFFFFFFFFFFFFFFFFFFFFFFE4
:10210C00FFFFFFFFFFFFFFFFFFFFFFFFFFFFFFFFD3
:10211C00FFFFFFFFFFFFFFFFFFFFFFFFFFFFFFFFC3
:10212C0000080000020000008000000000200000F9
:0C213C0000000000004000000000000057
:1021480020204D696B726F20456C656B74726F6EE1
:04215800696B61004E
:02215C00000081
:01215E000080
:00000001FF
