:10000000FCFF02208D1B0000451B0000451B00006B
:10001000451B0000451B0000451B0000451B000060
:10002000451B0000451B0000451B0000451B000050
:10003000451B0000451B0000451B0000451B000040
:10004000451B0000451B0000451B0000451B000030
:10005000451B0000451B0000451B0000451B000020
:10006000451B0000451B0000451B0000451B000010
:10007000451B0000451B0000451B0000451B000000
:10008000451B0000451B0000451B0000451B0000F0
:10009000451B0000451B0000451B0000451B0000E0
:1000A000451B0000451B0000451B0000451B0000D0
:1000B000451B0000451B0000451B0000451B0000C0
:1000C000451B0000451B0000451B0000451B0000B0
:1000D000451B0000451B0000451B0000451B0000A0
:1000E000451B0000451B0000451B0000451B000090
:1000F000451B0000451B0000451B0000451B000080
:10010000451B0000451B0000451B0000451B00006F
:10011000451B0000451B0000451B0000451B00005F
:10012000451B0000451B0000451B0000451B00004F
:10013000451B0000451B0000451B0000451B00003F
:10014000451B0000451B0000451B0000451B00002F
:10015000451B0000451B0000451B0000451B00001F
:10016000451B0000451B0000451B0000451B00000F
:10017000451B0000451B0000451B0000451B0000FF
:10018000451B0000451B0000451B0000451B0000EF
:08019000451B0000451B0000A7
:101B8C0000F010F8FFF7DCFF00F084FFFFF7EEFF2A
:101B9C0000F040FFFFF7A2FFFFF7E0FEFFF7FAFEB1
:041BAC00FCE7FEE76D
:10198C0081B01CF8019B0BF8019BBBEB0A0FF8D143
:04199C0001B07047DF
:101AAC0081B04FF000094FF0000CBDEB0A0F04DCC5
:101ABC00BDEB0B0F01DBD446EA464BF8049BBBEBAA
:101ACC000A0FFAD1BCEB0A0F05DDE246D9F800B0DB
:0A1ADC000BF1040BF1E701B07047B5
:101AE80081B0CDF800E0002200210020FFF76CFD56
:101AF800002201210020FFF767FD002202210020BB
:101B0800FFF762FD002206210020FFF75DFD0A486D
:101B180001460020FFF712FE40F6FE07C0F23D071F
:101B280000BF00BF7F1EFDD100BF00BF00BFDDF8B2
:0C1B380000E001B0704700BF182A000058
:1015D00081B0CDF800E05FFA81F85FFA82F916E099
:1015E0005FFA89F15FFA88F0FFF70EFF16E05FFA05
:1015F00089F15FFA88F0FFF70FFC0FE05FFA89F1DD
:101600005FFA88F0FFF73EFD08E0012006E00028C1
:10161000E6D00128EBD00228F0D0F6E7DDF800E0B4
:0416200001B070475E
:1014080081B0CDF800E0A9E0012905D14FF0040131
:101418006548FFF7D5FC04E04FF004016348FFF787
:10142800C3FCBBE0012905D14FF400615E48FFF71A
:10143800C7FC04E04FF400615C48FFF7B5FCADE081
:10144800012905D14FF010015948FFF7B9FC04E014
:101458004FF010015748FFF7A7FC9FE0012905D17D
:101468004FF020015248FFF7ABFC04E04FF0200199
:101478005048FFF799FC91E0012905D14FF0800110
:101488004B48FFF79DFC04E04FF080014948FFF707
:101498008BFC83E0012905D14FF040014448FFF758
:1014A8008FFC04E04FF040014248FFF77DFC75E0F7
:1014B800012905D14FF480613F48FFF781FC04E022
:1014C8004FF480613D48FFF76FFC67E0012905D1C3
:1014D8004FF400513448FFF773FC04E04FF4005117
:1014E8003248FFF761FC59E0012905D14FF00401AA
:1014F8003348FFF765FC04E04FF004013148FFF77B
:1015080053FC4BE0012905D14FF008012C48FFF7A7
:1015180057FC04E04FF008012A48FFF745FC3DE07E
:10152800012905D14FF480712548FFF749FC04E0F3
:101538004FF480712348FFF737FC2FE0012905D1CC
:101548004FF400711E48FFF73BFC04E04FF40071B4
:101558001C48FFF729FC21E0012020E000283FF487
:1015680053AF01283FF45EAF02283FF469AF032868
:101578003FF474AF04283FF47FAF05283FF48AAFE7
:1015880006283FF495AF0728A0D00828ACD0092832
:10159800B8D00A28C4D00B28D0D0DDE70020DDF869
:1015A80000E001B0704700BF50F00F4040F00F401E
:1015B80090F00F4080F00F4010F00F4000F00F4007
:0815C800D0F00F40C0F00F400D
:100DC80081B0CDF800E0034AFFF7FCFEDDF800E053
:080DD80001B0704704010200A4
:100BCC0081B0CDF800E0FFF7DBFCDDF800E001B010
:020BDC00704760
:10058C0083B0CDF800E006460C4615463046FFF722
:10059C003FFF40F2FF1306EA0300800900262246C3
:1005AC002946202E39D24FF0010303FA06F402EA51
:1005BC0004031F46A3422ED104031A4B1C19B3008B
:1005CC00E51801952C68184B04EA03032B60174BB4
:1005DC0001EA0304019B1B6843EA0404019B1C60B1
:1005EC0001F48033B3F5803F15D08401104B1B19F7
:1005FC001433029301F400333BB1FC43029B1B68A0
:10060C0003EA0404029B1C6005E0029B1B6843EA9E
:10061C000704029B1C60761CC3E7DDF800E003B006
:10062C00704700BF009004400000FFFFFFFF000078
:04063C0000F00F407B
:10041C0081B040F2FF1100EA01018909084600F29F
:10042C0009024FF0010101FA02F20449096841EA9C
:10043C00020202490A6001B0704700BF38800440D4
:100DB00081B0CDF800E0034AFFF708FFDDF800E05E
:080DC00001B0704704010400BA
:100E180081B0CDF800E0A9E0012905D14FF0080123
:100E28006548FFF7CDFF04E04FF008016348FFF77E
:100E3800BBFFBBE0012905D14FF400215E48FFF755
:100E4800BFFF04E04FF400215C48FFF7ADFFADE0C1
:100E5800012905D14FF008015948FFF7B1FF04E017
:100E68004FF008015748FFF79FFF9FE0012905D180
:100E78004FF020015248FFF7A3FF04E04FF0200194
:100E88005048FFF791FF91E0012905D14FF080010B
:100E98004B48FFF795FF04E04FF080014948FFF702
:100EA80083FF83E0012905D14FF040014448FFF753
:100EB80087FF04E04FF040014248FFF775FF75E0F7
:100EC800012905D14FF400613F48FFF779FF04E09D
:100ED8004FF400613D48FFF767FF67E0012905D13E
:100EE8004FF480713448FFF76BFF04E04FF48071D2
:100EF8003248FFF759FF59E0012905D14FF48031F5
:100F08002F48FFF75DFF04E04FF480312D48FFF7CD
:100F18004BFF4BE0012905D14FF400312848FFF77A
:100F28004FFF04E04FF400312648FFF73DFF3DE056
:100F3800012905D14FF480712548FFF741FF04E0EE
:100F48004FF480712348FFF72FFF2FE0012905D1C7
:100F58004FF400711E48FFF733FF04E04FF40071AF
:100F68001C48FFF721FF21E0012020E000283FF482
:100F780053AF01283FF45EAF02283FF469AF03285E
:100F88003FF474AF04283FF47FAF05283FF48AAFDD
:100F980006283FF495AF0728A0D00828ACD0092828
:100FA800B8D00A28C4D00B28D0D0DDE70020DDF85F
:100FB80000E001B0704700BF50F00F4040F00F4014
:100FC80090F00F4080F00F4010F00F4000F00F40FD
:080FD800D0F00F40C0F00F4003
:1010840081B0CDF800E0A9E0012905D14FF040017D
:101094006548FFF797FE04E04FF040016348FFF70F
:1010A40085FEBBE0012905D14FF480615E48FFF75E
:1010B40089FE04E04FF480615C48FFF777FEADE001
:1010C400012905D14FF004015948FFF77BFE04E0E4
:1010D4004FF004015748FFF769FE9FE0012905D14D
:1010E4004FF020015248FFF76DFE04E04FF020015D
:1010F4005048FFF75BFE91E0012905D14FF08001D4
:101104004B48FFF75FFE04E04FF080014948FFF7CA
:101114004DFE83E0012905D14FF040014448FFF71B
:1011240051FE04E04FF040014248FFF73FFE75E0F6
:10113400012905D14FF010013F48FFF743FE04E0B9
:101144004FF010013D48FFF731FE67E0012905D15A
:101154004FF080013448FFF735FE04E04FF0800182
:101164003248FFF723FE59E0012905D14FF48031BD
:101174002F48FFF727FE04E04FF480312D48FFF796
:1011840015FE4BE0012905D14FF400312848FFF743
:1011940019FE04E04FF400312648FFF707FE3DE056
:1011A400012905D14FF480712548FFF70BFE04E0B7
:1011B4004FF480712348FFF7F9FD2FE0012905D191
:1011C4004FF400711E48FFF7FDFD04E04FF4007179
:1011D4001C48FFF7EBFD21E0012020E000283FF44C
:1011E40053AF01283FF45EAF02283FF469AF0328F0
:1011F4003FF474AF04283FF47FAF05283FF48AAF6F
:1012040006283FF495AF0728A0D00828ACD00928B9
:10121400B8D00A28C4D00B28D0D0DDE70020DDF8F0
:1012240000E001B0704700BF50F00F4040F00F40A5
:1012340090F00F4080F00F4010F00F4000F00F408E
:08124400D0F00F40C0F00F4094
:1017440081B0CDF800E00DE00846FFF753FC10E04F
:101754000846FFF733FE0CE00846FFF741FE08E0B9
:10176400012006E00028EFD00128F1D00228F3D0B0
:0A177400F6E7DDF800E001B0704771
:100FF80081B0CDF800E0011D0A6801680846114675
:10100800034AFFF759FE0020DDF800E001B0704701
:04101800DC280000D0
:100CC00081B0CDF800E003460C4615460648FFF714
:100CD00087FF224619462B460348FFF7FDFEDDF845
:0C0CE00000E001B0704700BF00C00240FF
:100BE00081B00F49884206D10E4A0F490A600F4A68
:100BF0000F490A6012E00F49884206D10E4A0A499D
:100C00000A600E4A0A490A6008E00D49884205D187
:100C10000C4A05490A600C4A05490A6001B0704750
:100C200000C002404D0900006001FF1FFFFFFFFFF1
:100C30006401FF1F00D0024085090000FFFFFFFF95
:0C0C400000C00A40F9090000FFFFFFFFA0
:100AD80084B0CDF800E003910146104601900291E0
:100AE8001846FFF76DFE0299019800F010042409DA
:100AF8002346019002910846FFF788FE0299029169
:100B08000846FFF70BFD0299019800F000450C68B4
:100B18002C430C6000F080450C682C430C600C687A
:100B280044F440540C600D686FF4804405EA0404F2
:100B38000C6001F20C059C002E1900F00F053468BA
:100B48002C43346001F20C059C002E1900F08065DE
:100B580034682C43346001F20C059C002E1900F017
:100B6800007534682C43346001F20C059C002E1982
:100B780000F0807534682C43346001F20C059C0049
:100B88002E1935686FF0F04405EA0404346001F268
:100B98000C059C002E1900F00F04E50634682C4360
:100BA80034600191039A0846D9B2FFF75BFD0199B9
:100BB8000D686FF0010405EA04040C60DDF800E03C
:040BC80004B07047BE
:1007C80081B0CDF800E040F2000C83464FEA8C017E
:1007D8000BEB01010968B1F1FF3F12D00BF13401B5
:1007E8004FEA8C03C91809680A460BEB030109682C
:1007F80008461146FFF726FE0CF1010C1FFA8CFC87
:0A080800E4E7DDF800E001B07047FE
:10044C0082B0CDF800E080464FEA581202F0070265
:10045C00914608F01F04A24693010D4AD3184FF0A1
:10046C000102A240019218460A46019900F0A8FB2D
:10047C004FEA0933074AD3184FEA8A029C1808F44A
:10048C00E06322681A432260DDF800E002B0704796
:08049C0000F00F400090044045
:1008140081B00B49884203D1012252B209490A60CE
:100824000949884203D1012252B208490A600849A1
:10083400884203D1012252B206490A6001B07047CE
:1008440000C00240B007904200D00240B40790427A
:0808540000C00A40300690428A
:1005240081B002686FF4804102EA01010160016850
:1005340041F00101016000F22C021149116000F246
:1005440008020021116000F20C024FF0F04111602A
:1005540000F210024FF0F041116000F2300200216D
:10056400116000F2340200211160016841F440611D
:1005740001600268034942EA0101016001B0704769
:0805840000000A9A014000008A
:10066C0091B0CDF800E00F9010468DF840100E9030
:10067C0001AB1846FFF710FF4FF0FF330D9300232B
:10068C0006930023089301230A9300230B93002362
:10069C000593059B042B41D20D9B002B3ED00023D0
:1006AC000793079B102B35D20D9B002B32D00123C7
:1006BC000993099B032B29D20D9B3BB3099C029BED
:1006CC0003FB04F6059B9C00314B1B191D68079B13
:1006DC009C00304B1B191B686B43B6FBF3F4204694
:1006EC000E9BA3420ED30E9B1C1A0C940D9BA34283
:1006FC0008D90C9B0D93059B0693079B08930B90B5
:10070C00099B0A93099B5B1C0993D2E7079B5B1C13
:10071C000793C6E7059B5B1C0593BAE70F9B03F297
:10072C000C049DF840309B00E5182C681A4B04EA29
:10073C0003032B600F9B03F20C049DF840309B00CD
:10074C00E5180A9B5B1EDC072B6823432B600F9B71
:10075C0003F20C049DF840309B00E518069B1B042B
:10076C0003F440342B6823432B600F9B03F20C04DF
:10077C009DF840309B00E518089B03F00F042B6894
:10078C0023432B600B98DDF800E011B0704700BFDD
:0C079C00002A0000A8290000F0FFFC7FEC
:1004A40081B0CDF800E00446FFF7B0FF40F2E83138
:1004B40000FB01F3194909680A0F1849096801F09A
:1004C4007061090EC8B21549096801F47001090D7B
:1004D400CDB21249096801F47021090CCEB2D1B22F
:1004E400491C09B259430F462360221D411C09B21D
:1004F400B7FBF1F1116004F20802691C09B2B7FB01
:10050400F1F1116004F20C02711C09B2B7FBF1F1B4
:100514001160DDF800E001B0704700BF4480044082
:0C04100001480068704700BF5C01FF1F3E
:1013C00081B0CDF800E0011D0A68016808461146A9
:1013D000034AFFF775FC0020DDF800E001B070471C
:0413E000DC28000005
:1013E40081B0CDF800E0011D0A6801680846114685
:1013F400034AFFF763FC0020DDF800E001B070470A
:04140400DC280000E0
:1019680081B0CDF800E005490548FFF785FFFFF78E
:1019780091FFDDF800E001B0704700BF102A0000B9
:0419880048290000EA
:1018800081B0CDF800E003460846FFF773FD184627
:0C189000FFF77CFDDDF800E001B07047C0
:10137400026803490A60011D0A6802490A6070474D
:081384002800FF1F5801FF1FA4
:10138C00026808490A6000F208010A6806490A6006
:10139C00011D0A6805490A6000F218010A6804492F
:1013AC000A6070473000FF1F3400FF1F3C00FF1F16
:0413BC002C00FF1FE3
:10189C0081B0CDF800E00E2200210348FFF79AFB3F
:0C18AC00DDF800E001B070471800FF1FDD
:100FE00093B20246C8B299B28CB24B1E99B214B1F8
:080FF0001070521CF8E7704775
:1019A00083B0CDF800E001208DF809003E48FFF734
:1019B000E7FE0120FFF780FF9DF8090088B1FFF7DF
:1019C0008BFF8DF80900FFF7AFFE49F63E47C0F2E6
:1019D000000700BF00BF7F1EFDD100BF00BF00BFDA
:1019E000EAE7FFF7A9FEFFF759FF00208DF808008E
:1019F0009DF808000B2824D2FFF750FF9DF808003F
:101A0000FFF710FE0022D1B21E2914D28DF8041067
:101A1000FFF762FF9DF8041049F63E47C0F2000749
:101A200000BF00BF7F1EFDD100BF00BF00BF481C2C
:101A3000C2B2D1B2E8E79DF80800401C8DF808005A
:101A4000D6E7FFF72BFF03210220FFF73FFE082117
:101A50000220FFF73BFE03210620FFF737FE082197
:101A60000620FFF733FE00208DF808009DF80800DF
:101A7000B0F1FF0F12D2FFF72FFF49F63E47C0F239
:101A8000000700BF00BF7F1EFDD100BF00BF00BF29
:101A90009DF80800401C8DF80800E7E7FFF7FEFE00
:0C1AA000DDF800E003B070470000FF1FFD
:1017800082B0CDF800E00546FFF770FC38490870DC
:10179000C1B2282902D9282235490A7040F218120C
:1017A00000213448FFF71CFC002000B22B463049D2
:1017B000097888423EDA1978CA0012B22E498D188B
:1017C0005C1C022212B290FBF2F102FB110109B281
:1017D00099B900231BB2072B0DDA282101FB03F274
:1017E00024498A18411C09B25218297811706D1CBD
:1017F0005B1C1BB2EFE7234619E0002109B203B2DC
:1018000020460CB2072C0DDA282101FB04F21949FD
:101810008A18591E09B25218297811706D1C641C5F
:1018200024B2EFE7ADF804300346BDF90400401CD4
:1018300000B2BCE7002000B2072815DA002424B269
:10184000022C0EDA42000D4989180B19282101FBE0
:1018500000F208498918091909781970641C24B222
:10186000EEE7401C00B2E7E7DDF800E002B07047A9
:101870003900FF1F4000FF1FDC2000001800FF1F81
:10106C00014640F200000A46117819B1521C401C8E
:06107C0080B2F9E77047A5
:1018B800012204490A7004490870002203490A8079
:1018C800704700BF1700FF1F3800FF1F2600FF1FCB
:1018D80081B0CDF800E01E480078002830D01DE027
:1018E8001C480088072804D9FFF7ACFC00211948D8
:1018F80001801FE017480088052804D9FFF7A2FCDB
:1019080000211448018015E012480088012804D9F4
:10191800FFF798FC00210F4801800BE00E48007883
:101928000028DDD00C4800780128E3D00A48007868
:101938000228E9D00948FFF76DFB0548007803E065
:101948000648FFF767FB0120DDF800E001B07047AB
:101958001700FF1F2600FF1F3800FF1F1800FF1F7A
:10124C0081B0002424B2072C4DDA01252DB2B5F162
:10125C00FF3F45DD61003E484018411908784008C1
:10126C000870012D09D1610039484018007800F050
:10127C000100C0B20001C2B228E03648007800F08C
:10128C000100C0B228B933480078C01CADF800008A
:10129C0004E030480078401CADF80000282000FB2A
:1012AC0004F12D484118BDF90000081802782B4BA9
:1012BC001988012000B2884000B20240184600880C
:1012CC00C0F1040189B2D0B28840C2B2610020489A
:1012DC00401841190878104308706D1E2DB2B6E7FE
:1012EC00641C24B2AFE71D490888401C80B20880FA
:1012FC0004282BD9002119480180164A1078411C6A
:10130C00C9B211701648007881421FD900231BB254
:10131C00072B15DA002424B2022C0EDA59000C48E3
:10132C0040180219282000FB03F10B484018001943
:10133C0000781070641C24B2EEE75B1C1BB2E7E76C
:10134C0000210448017000210648017001B070476B
:10135C001800FF1F1600FF1F4000FF1F1400FF1F87
:08136C003900FF1F1700FF1FED
:10101C0083B0CDF800E00290FFF7DCFEFFF72EFE68
:10102C00002109B2ADF80410BDF90410072913DA38
:10103C00BDF904104A0012B202998918084602211F
:10104C00FFF74EFEFFF76AFEFFF790FEBDF90410A6
:10105C00491CADF80410E7E7DDF800E003B0704779
:100DE00081B0CDF800E000200A4C2468A04740F212
:100DF0002607C0F2000700BF00BF7F1EFDD100BF65
:100E000000BF00BF0120034C2468A047DDF800E0CC
:080E100001B070473C00FF1F18
:0C0AC00001490860704700BF0808FE43B1
:0C0ACC0001490860704700BF2C08FE4381
:0C0C700001490860704700BF1010FE43EF
:0C0C7C0001490860704700BF1410FE43DF
:0C0C640001490860704700BF1C10FE43EF
:0C0C4C0001490860704700BF1810FE430B
:0C0C580001490860704700BF2800FE43FF
:0C0AB40001490860704700BF3408FE4391
:0C08D40001490860704700BF0818FE438F
:0C08E00001490860704700BF0C18FE437F
:0C08C80001490860704700BF2018FE4383
:0C08B00001490860704700BF2418FE4397
:0C08BC0001490860704700BF0C08FE43B3
:0C08EC0001490860704700BF4C08FE4343
:0C091C0001490860704700BF0C10FE434A
:0C09280001490860704700BF1410FE4336
:0C09100001490860704700BF1C10FE4346
:0C08F80001490860704700BF1810FE4363
:0C09040001490860704700BF2C00FE4352
:0C085C0001490860704700BF2008FE43FF
:0C08680001490860704700BF4010FE43CB
:0C08980001490860704700BF4410FE4397
:0C08A40001490860704700BF2018FE43A7
:0C088C0001490860704700BF2418FE43BB
:0C08740001490860704700BF1808FE43EF
:0C08800001490860704700BF2808FE43D3
:0C09340001490860704700BF0810FE4336
:0C0A300001490860704700BF1410FE432D
:0C0A3C0001490860704700BF1C10FE4319
:0C0A180001490860704700BF1810FE4341
:0C0A240001490860704700BF1000FE434D
:0C0A640001490860704700BF1C08FE43F9
:0C0A700001490860704700BF4010FE43C1
:0C096C0001490860704700BF4410FE43C2
:0C09780001490860704700BF2018FE43D2
:0C09400001490860704700BF2418FE4306
:100C880081B0CDF800E001200A4C2468A04740F26A
:100C98002607C0F2000700BF00BF7F1EFDD100BFBE
:100CA80000BF00BF0020034C2468A047DDF800E027
:080CB80001B070472C00FF1F82
:100CEC0083B0CDF800E08AB2014690B283B2421EC6
:100CFC0090B26BB10A78D4B2ADF804000291A0B2F4
:100D0C00054C2468A0470299BDF80400491CEDE786
:0C0D1C00DDF800E003B070472800FF1F66
:10094C0081B0CDF800E082B24FF080610348FFF730
:10095C0071FEDDF800E001B0704700BF00C002403E
:1006400081B000F22C044FF00043236000F2340428
:1006500093B241EA0303236000F22C031C68C4F345
:0A066000C07303B9F8E701B070475A
:1009840081B0CDF800E082B24FF080610348FFF7F8
:1009940055FEDDF800E001B0704700BF00D0024012
:1009F80081B0CDF800E082B24FF080610348FFF784
:100A08001BFEDDF800E001B0704700BF00C00A40DF
:1009A40081B0CDF800E081B20348FFF7FBFEDDF82B
:0C09B40000E001B0704700BF00A006404A
:1007A80081B0ADF800100146BDF800000A1D1378AD
:1007B800C3F3C01202B9F9E7CA1D107001B070473F
:1009C00081B0CDF800E081B20348FFF7EDFEDDF81D
:0C09D00000E001B0704700BF00B006401E
:1009DC0081B0CDF800E081B20348FFF7DFFEDDF80F
:0C09EC0000E001B0704700BF00C00640F2
:100A980081B0CDF800E081B20348FFF781FEDDF8B0
:0C0AA80000E001B0704700BF00D0064025
:100A7C0081B0CDF800E081B20348FFF78FFEDDF8BE
:0C0A8C0000E001B0704700BF00A00E4069
:100A480081B0CDF800E081B20348FFF7A9FEDDF8D8
:0C0A580000E001B0704700BF00B00E408D
:100D280081B0CDF800E00020104C2468A04740F2C4
:100D38002607C0F2000700BF00BF7F1EFDD100BF1D
:100D480000BF00BF0120094C2468A04749F63E4770
:100D5800C0F2000700BF00BF7F1EFDD100BF00BF6B
:100D680000BFDDF800E001B0704700BF3400FF1F8E
:100D780081B0CDF800E001200A4C2468A04740F279
:100D88002607C0F2000700BF00BF7F1EFDD100BFCD
:100D980000BF00BF0020034C2468A047DDF800E036
:080DA80001B070473000FF1F8D
:1017280002480088411C0148018070472600FF1FBD
:0C17380000210148017070471700FF1FDE
:10162400632800D94BE00A2814D200F2300109B231
:10163400CA0012B222498B18002000B2072808DA27
:10164400420020498A18197811705B1C401C00B2B2
:10165400F4E734E00A21B0FBF1F1C9B2CAB202F2F4
:10166400300109B2CA0012B215498C1800231BB20A
:10167400072B09DA5A00134989184A1C217811707A
:10168400641C5B1C1BB2F3E70A22B0FBF2F102FB01
:101694001101C9B2C8B200F2300109B2CA0012B2D3
:1016A40007498B18002000B2072808DA42000549D0
:1016B4008A18197811705B1C401C00B2F4E770475B
:0816C400DC2000001800FF1FEC
:1016CC00072805D80A2903D810B1002900D000E05A
:1016DC0021E0062910D2421E12B253000E4AD21833
:1016EC00541C4B1E1BB2012212B202FA03F31BB2A2
:1016FC0022781A4322700EE0421E12B25300064AA0
:10170C00D4188B1F1BB2012212B202FA03F31BB2C4
:0C171C0022781A43227070471800FF1F4B
:101BB00090B072B69748019097480290974803906A
:101BC0009748049097480590974806909748079043
:101BD000974808909748099097480A9097480B9023
:101BE00097480C90974998480D9098480E900D98FA
:101BF00000F007000F9001F0010050B94CF22050A6
:101C0000934908804DF62810088040F2D21191487F
:101C100001809148007800F0010050B18F480078B1
:101C200000F0080020B18D49087840F008000870E5
:101C300021E08B48006840F00051894801608948E4
:101C4000006800F48070B0B9864801686FF4705085
:101C500001EA000040F44071824801608148006858
:101C600040F480717F4801607E4801686FF4007025
:101C700001407C480160AA217B4801700D9800F06A
:101C8000100060B9794801786FF060000140774832
:101C9000017077480078012800D0FAE71CE00D9821
:101CA00000F01000C0B10E997248814208D960213D
:101CB0006E4801706E480078802800D0FAE70BE08B
:101CC0006A4801786FF06000014068480170684818
:101CD0000078012800D0FAE7049967480160674856
:101CE00001686FF440200140029800F44020014355
:101CF00062480160624801686FF440300140039817
:101D000000F4403001435E4801600F9830B10F98F5
:101D1000012803D00F98022800D061E0019800F05C
:101D2000800050B9089800F0400028B10B9800F0EE
:101D30000300002800D100E015E05248006840F49C
:101D400000715048016050480168504801404E48B9
:101D50000160069800F0040028B14D4801684B4826
:101D600001404B4801600A994A48017005994A4868
:101D70000170059800F0040038B14848007800F080
:101D80001000002800D1F8E705E04448007800F092
:101D9000100000B1F9E74248007800F0BF01C9B275
:101DA000069800F0FD0001433D480170079800F0DF
:101DB000E0013C48007800F01F0001433948017001
:101DC0000199394801700B99384801700F98022821
:101DD00005D13348007840F0020131480170B8E085
:101DE000019800F0800020B90B9800F0030000B1CA
:101DF00065E02448006840F40071224801602248F0
:101E000001682248014020480160069800F0040063
:101E100000F04EB80000000000000C0000000100BF
:101E20000000140122000000240000000000000057
:101E3000020000004600000000000000000000005A
:101E4000000000000000000007000000C0D40100F6
:101E50000E2005400020054000F0074002D007405A
:101E60003C80044010D0034000E0074001E0074000
:101E700003E00740803801004480044000700440C3
:101E8000048004403880044048900440FFF8FFFE7E
:101E90004C90044008400640004006400640064082
:101EA0000140064003400640005006400C400640FA
:101EB00028B17A4801687A480140784801600A9957
:101EC000784801707848007800F0BF01C9B20698E0
:101ED00000F0FD00014374480170019973480170DE
:101EE0000B99734801700F98072805D1059840F0A9
:101EF00080017048017002E005996E4801700698F3
:101F000000F0040048B10B9800F0030028B96A48BB
:101F1000007800F0020000B9F9E7059800F004002D
:101F200038B16548007800F01000002800D1F8E7CB
:101F300005E06148007800F0100000B1F9E707986B
:101F400000F0E0015D48007800F01F0001435B48AD
:101F50000170089800F0BF0159480170099800F01D
:101F6000BF0158480170089800F0400028B154485B
:101F7000007840F04001524801700F98052806D1C2
:101F80004948007840F00201474801701BE00F9873
:101F9000062803D00F98072800D014E0494800789D
:101FA00040F04001474801704348007800F040008D
:101FB00000B9F9E70F98072805D13E48007800F0EE
:101FC0003F013C4801700F9818B10F98032800D0CA
:101FD0002CE03948007800F00C0000B1F9E73A48ED
:101FE000006840F00101384801604FF000013748B7
:101FF00001604FF08001364801604FF0050135481F
:1020000001604FF00101324801603148006800F082
:10201000800000B9F9E700212D4801602A480168D5
:102020006FF001000140284801602AE00F98012864
:1020300003D00F98022800D007E01F48007800F076
:102040000C00042800D0F8E71BE00F98042806D005
:102050000F98062803D00F98052800D007E01648EF
:10206000007800F00C00082800D0F8E709E00F988D
:10207000072806D11048007800F00C000C2800D08A
:10208000F8E7154801686FF00F0001400C9800F068
:102090000F0001431048016010B070474C9004409D
:1020A000FFF8FFFE08400640014006400050064091
:1020B0000C400640004006400640064003400640F3
:1020C00004400640054006403880044008000440B3
:0C20D0000000044004000440488004406C
:101B780081B002490248016001B07047C0D4010039
:041B88005C01FF1FDE
:081B440081B0FEE701B070471B
:101B4C0081B072B60849086840F47000086000BFA4
:101B5C0000BF00BF00BFF1EE100A40F44000E1EE00
:0C1B6C00100A62B601B0704788ED00E07E
:102A200000B5DFF814B0DFF814A0DFF814C0FEF72B
:102A3000ADFF00BD704700BF0000FF1F1700FF1F64
:042A4000E829000081
:102AA00000B5DFF810B0DFF810A0FEF7FFFF00BDA3
:0C2AB000704700BF0000FF1F6801FF1FFF
:100400000000000000000000FFFFFFFF02FDFFFFF3
:1020DC0000000000000000000000000000000000F4
:1020EC0000000000000000000000000000000000E4
:1020FC0000000000000000000000000000000000D4
:10210C0000000000000000000000000000000000C3
:10211C0000000000000000000000000000000000B3
:10212C0000000000000000000000000000000000A3
:10213C000000000000000000000000000000000093
:10214C000000000000000000000000000000000083
:10215C000000000000000000000000000000000073
:10216C000000000000000000000000000000000063
:10217C000000000000000000000000000000000053
:10218C000000000000000000000000000000000043
:10219C000000000000000000000000000000000033
:1021AC000000000000000000000000000000000023
:1021BC000000000000000000000000000000000013
:1021CC000000000000000000000000000000000003
:1021DC0000000000000000000404040400000400DF
:1021EC000A0A0A00000000000A0A1F0A1F0A0A0055
:1021FC00041E050E140F0400031308040219180022
:10220C00060905021509160006040200000000006C
:10221C000804020202040800020408080804020070
:10222C000004150E150400000004041F0404000033
:10223C0000000000060402000000001F0000000067
:10224C000000000000060600001008040201000057
:10225C000E11191513110E000406040404040E00CB
:10226C000E11100804021F001F08040810110E00A4
:10227C00080C0A091F0808001F010F1010110E008E
:10228C000C02010F11110E001F10080402020200B3
:10229C000E11110E11110E000E11111E1008060058
:1022AC0000060600060600000006060006040200F2
:1022BC00080402010204080000001F001F000000B7
:1022CC0002040810080402000E1110080400040097
:1022DC000E11101615150E000E1111111F111100F3
:1022EC000F11110F11110F000E11010101110E0030
:1022FC0007091111110907001F01010F01011F002E
:10230C001F01010F010101000E11011D11111E0011
:10231C001111111F111111000E04040404040E00FC
:10232C001C08080808090600110905030509110015
:10233C000101010101011F00111B151511111100E3
:10234C0011111315191111000E11111111110E008B
:10235C000F11110F010101000E11111115091600B9
:10236C000F11110F050911001E01010E10100F00A5
:10237C001F040404040404001111111111110E00A6
:10238C0011111111110A04001111111515150A0062
:10239C0011110A040A1111001111110A040404008C
:1023AC001F10080402011F000E02020202020E009E
:1023BC0000010204081000000E08080808080E00AE
:1023CC00040A1100000000000000000000001F00C3
:1023DC000C0408000000000000000E101E111E006E
:1023EC0001010F1111110F0000001E0101011E004F
:1023FC0010101E1111111E0000000E111F010E00F5
:10240C0018041F040404040000001E111E100E000A
:10241C0001010D13111111000400060404040E0037
:10242C0008000C08080906000202120A060A12002B
:10243C000604040404040E0000000B151515150009
:10244C0000000D131111110000000E1111110E00DE
:10245C0000000F110F01010000001E111E101000D2
:10246C0000001A060202020000000E010E100F00FE
:10247C0004041F04040418000000111111191600A3
:10248C0000001111110A04000000111115150A00A9
:10249C000000110A040A1100000011111E100E0098
:1024AC0000001F0804021F00180404020404180092
:1024BC0004040404040404000304040804040300D6
:1024CC0002150800000000000000000000000000E1
:1024DC0000000000000000000000000000000000F0
:1024EC0000000000000000000000000000000000E0
:1024FC0000000000000000000000000000000000D0
:10250C0000000000000000000000000000000000BF
:1028DC00450200004702000046020000FFFFFFFF18
:1028EC0000000000000000000000000000000000DC
:1028FC0000000000000000000000000000000000CC
:10290C0000000000000008000000080000000800A3
:10291C00FFFFFFFF000000000000000000000000AF
:10292C00000000000000000000000000000000009B
:0C293C000000000000000000000000008F
:10294800C10A0000CD0A0000710C00007D0C0000D7
:10295800650C00004D0C0000590C0000B50A000081
:10296800D5080000E1080000C9080000B10800000F
:10297800FFFFFFFFFFFFFFFFFFFFFFFFFFFFFFFF5F
:10298800FFFFFFFFFFFFFFFFFFFFFFFFFFFFFFFF4F
:10299800FFFFFFFFFFFFFFFFFFFFFFFFFFFFFFFF3F
:1029A800020000000400000006000000080000000B
:1029B800100000002000000040000000800000001F
:1029C80000010000000200000004000000080000F0
:1029D80000100000002000000040000000800000FF
:1029E80020204D696B726F20456C656B74726F6E39
:0429F800696B6100A6
:0229FC000000D9
:0129FE0000D8
:102A000002000000030000000500000007000000B5
:082A10004D090000FFFFFFFF6C
:082A180040420F00070000849A
:00000001FF
